{
	"src/NFT.sol": {
		"NFT": {
			"abi": [
				{
					"inputs": [],
					"stateMutability": "nonpayable",
					"type": "constructor"
				},
				{
					"inputs": [
						{
							"internalType": "uint256",
							"name": "",
							"type": "uint256"
						}
					],
					"name": "NFTs",
					"outputs": [
						{
							"internalType": "string",
							"name": "text",
							"type": "string"
						},
						{
							"internalType": "address",
							"name": "owner",
							"type": "address"
						},
						{
							"internalType": "uint256",
							"name": "id",
							"type": "uint256"
						},
						{
							"internalType": "uint256",
							"name": "price",
							"type": "uint256"
						}
					],
					"stateMutability": "view",
					"type": "function"
				},
				{
					"inputs": [
						{
							"internalType": "address",
							"name": "",
							"type": "address"
						},
						{
							"internalType": "uint256",
							"name": "",
							"type": "uint256"
						}
					],
					"name": "NFTsByOwner",
					"outputs": [
						{
							"internalType": "uint256",
							"name": "",
							"type": "uint256"
						}
					],
					"stateMutability": "view",
					"type": "function"
				},
				{
					"inputs": [
						{
							"internalType": "uint256",
							"name": "id",
							"type": "uint256"
						}
					],
					"name": "buyNFTById",
					"outputs": [],
					"stateMutability": "payable",
					"type": "function"
				},
				{
					"inputs": [
						{
							"internalType": "string",
							"name": "newText",
							"type": "string"
						},
						{
							"internalType": "uint256",
							"name": "newPrice",
							"type": "uint256"
						}
					],
					"name": "mint",
					"outputs": [],
					"stateMutability": "nonpayable",
					"type": "function"
				}
			],
			"devdoc": {
				"kind": "dev",
				"methods": {},
				"version": 1
			},
			"evm": {
				"assembly": "    /* \"src/NFT.sol\":109:1909  contract NFT {... */\n  mstore(0x40, 0x80)\n    /* \"src/NFT.sol\":596:774  constructor () {... */\n  callvalue\n  dup1\n  iszero\n  tag_1\n  jumpi\n  0x00\n  dup1\n  revert\ntag_1:\n  pop\n    /* \"src/NFT.sol\":757:767  msg.sender */\n  caller\n    /* \"src/NFT.sol\":749:754  admin */\n  0x02\n  0x00\n    /* \"src/NFT.sol\":749:767  admin = msg.sender */\n  0x0100\n  exp\n  dup2\n  sload\n  dup2\n  0xffffffffffffffffffffffffffffffffffffffff\n  mul\n  not\n  and\n  swap1\n  dup4\n  0xffffffffffffffffffffffffffffffffffffffff\n  and\n  mul\n  or\n  swap1\n  sstore\n  pop\n    /* \"src/NFT.sol\":109:1909  contract NFT {... */\n  dataSize(sub_0)\n  dup1\n  dataOffset(sub_0)\n  0x00\n  codecopy\n  0x00\n  return\nstop\n\nsub_0: assembly {\n        /* \"src/NFT.sol\":109:1909  contract NFT {... */\n      mstore(0x40, 0x80)\n      jumpi(tag_1, lt(calldatasize, 0x04))\n      shr(0xe0, calldataload(0x00))\n      dup1\n      0x056b01ce\n      eq\n      tag_2\n      jumpi\n      dup1\n      0x71b79d25\n      eq\n      tag_3\n      jumpi\n      dup1\n      0xa3c0b95b\n      eq\n      tag_4\n      jumpi\n      dup1\n      0xd599c4dd\n      eq\n      tag_5\n      jumpi\n    tag_1:\n      0x00\n      dup1\n      revert\n        /* \"src/NFT.sol\":834:1286  function mint(string memory newText, uint256 newPrice) public {... */\n    tag_2:\n      callvalue\n      dup1\n      iszero\n      tag_6\n      jumpi\n      0x00\n      dup1\n      revert\n    tag_6:\n      pop\n      tag_7\n      0x04\n      dup1\n      calldatasize\n      sub\n      dup2\n      add\n      swap1\n      tag_8\n      swap2\n      swap1\n      tag_9\n      jump\t// in\n    tag_8:\n      tag_10\n      jump\t// in\n    tag_7:\n      stop\n        /* \"src/NFT.sol\":446:494  mapping(address => uint256[]) public NFTsByOwner */\n    tag_3:\n      callvalue\n      dup1\n      iszero\n      tag_11\n      jumpi\n      0x00\n      dup1\n      revert\n    tag_11:\n      pop\n      tag_12\n      0x04\n      dup1\n      calldatasize\n      sub\n      dup2\n      add\n      swap1\n      tag_13\n      swap2\n      swap1\n      tag_14\n      jump\t// in\n    tag_13:\n      tag_15\n      jump\t// in\n    tag_12:\n      mload(0x40)\n      tag_16\n      swap2\n      swap1\n      tag_17\n      jump\t// in\n    tag_16:\n      mload(0x40)\n      dup1\n      swap2\n      sub\n      swap1\n      return\n        /* \"src/NFT.sol\":367:388  NFTData[] public NFTs */\n    tag_4:\n      callvalue\n      dup1\n      iszero\n      tag_18\n      jumpi\n      0x00\n      dup1\n      revert\n    tag_18:\n      pop\n      tag_19\n      0x04\n      dup1\n      calldatasize\n      sub\n      dup2\n      add\n      swap1\n      tag_20\n      swap2\n      swap1\n      tag_21\n      jump\t// in\n    tag_20:\n      tag_22\n      jump\t// in\n    tag_19:\n      mload(0x40)\n      tag_23\n      swap5\n      swap4\n      swap3\n      swap2\n      swap1\n      tag_24\n      jump\t// in\n    tag_23:\n      mload(0x40)\n      dup1\n      swap2\n      sub\n      swap1\n      return\n        /* \"src/NFT.sol\":1419:1906  function buyNFTById( uint256 id) public payable {... */\n    tag_5:\n      tag_25\n      0x04\n      dup1\n      calldatasize\n      sub\n      dup2\n      add\n      swap1\n      tag_26\n      swap2\n      swap1\n      tag_21\n      jump\t// in\n    tag_26:\n      tag_27\n      jump\t// in\n    tag_25:\n      stop\n        /* \"src/NFT.sol\":834:1286  function mint(string memory newText, uint256 newPrice) public {... */\n    tag_10:\n        /* \"src/NFT.sol\":928:933  admin */\n      0x02\n      0x00\n      swap1\n      sload\n      swap1\n      0x0100\n      exp\n      swap1\n      div\n      0xffffffffffffffffffffffffffffffffffffffff\n      and\n        /* \"src/NFT.sol\":914:933  msg.sender == admin */\n      0xffffffffffffffffffffffffffffffffffffffff\n      and\n        /* \"src/NFT.sol\":914:924  msg.sender */\n      caller\n        /* \"src/NFT.sol\":914:933  msg.sender == admin */\n      0xffffffffffffffffffffffffffffffffffffffff\n      and\n      eq\n        /* \"src/NFT.sol\":906:957  require(msg.sender == admin, \"Only admin can mint\") */\n      tag_29\n      jumpi\n      mload(0x40)\n      0x08c379a000000000000000000000000000000000000000000000000000000000\n      dup2\n      mstore\n      0x04\n      add\n      tag_30\n      swap1\n      tag_31\n      jump\t// in\n    tag_30:\n      mload(0x40)\n      dup1\n      swap2\n      sub\n      swap1\n      revert\n    tag_29:\n        /* \"src/NFT.sol\":1029:1033  NFTs */\n      0x00\n        /* \"src/NFT.sol\":1039:1278  NFTData({... */\n      mload(0x40)\n      dup1\n      0x80\n      add\n      0x40\n      mstore\n      dup1\n        /* \"src/NFT.sol\":1067:1074  newText */\n      dup5\n        /* \"src/NFT.sol\":1039:1278  NFTData({... */\n      dup2\n      mstore\n      0x20\n      add\n        /* \"src/NFT.sol\":1167:1168  0 */\n      0x00\n        /* \"src/NFT.sol\":1039:1278  NFTData({... */\n      0xffffffffffffffffffffffffffffffffffffffff\n      and\n      dup2\n      mstore\n      0x20\n      add\n        /* \"src/NFT.sol\":1227:1231  NFTs */\n      0x00\n        /* \"src/NFT.sol\":1227:1238  NFTs.length */\n      dup1\n      sload\n      swap1\n      pop\n        /* \"src/NFT.sol\":1039:1278  NFTData({... */\n      dup2\n      mstore\n      0x20\n      add\n        /* \"src/NFT.sol\":1259:1267  newPrice */\n      dup4\n        /* \"src/NFT.sol\":1039:1278  NFTData({... */\n      dup2\n      mstore\n      pop\n        /* \"src/NFT.sol\":1029:1279  NFTs.push(NFTData({... */\n      swap1\n      dup1\n      0x01\n      dup2\n      sload\n      add\n      dup1\n      dup3\n      sstore\n      dup1\n      swap2\n      pop\n      pop\n      0x01\n      swap1\n      sub\n      swap1\n      0x00\n      mstore\n      keccak256(0x00, 0x20)\n      swap1\n      0x04\n      mul\n      add\n      0x00\n      swap1\n      swap2\n      swap1\n      swap2\n      swap1\n      swap2\n      pop\n      0x00\n      dup3\n      add\n      mload\n      dup2\n      0x00\n      add\n      swap1\n      dup2\n      tag_33\n      swap2\n      swap1\n      tag_34\n      jump\t// in\n    tag_33:\n      pop\n      0x20\n      dup3\n      add\n      mload\n      dup2\n      0x01\n      add\n      exp(0x0100, 0x00)\n      dup2\n      sload\n      dup2\n      0xffffffffffffffffffffffffffffffffffffffff\n      mul\n      not\n      and\n      swap1\n      dup4\n      0xffffffffffffffffffffffffffffffffffffffff\n      and\n      mul\n      or\n      swap1\n      sstore\n      pop\n      0x40\n      dup3\n      add\n      mload\n      dup2\n      0x02\n      add\n      sstore\n      0x60\n      dup3\n      add\n      mload\n      dup2\n      0x03\n      add\n      sstore\n      pop\n      pop\n        /* \"src/NFT.sol\":834:1286  function mint(string memory newText, uint256 newPrice) public {... */\n      pop\n      pop\n      jump\t// out\n        /* \"src/NFT.sol\":446:494  mapping(address => uint256[]) public NFTsByOwner */\n    tag_15:\n      mstore(0x20, 0x01)\n      dup2\n      0x00\n      mstore\n      keccak256(0x00, 0x40)\n      dup2\n      dup2\n      sload\n      dup2\n      lt\n      tag_35\n      jumpi\n      0x00\n      dup1\n      revert\n    tag_35:\n      swap1\n      0x00\n      mstore\n      keccak256(0x00, 0x20)\n      add\n      0x00\n      swap2\n      pop\n      swap2\n      pop\n      pop\n      sload\n      dup2\n      jump\t// out\n        /* \"src/NFT.sol\":367:388  NFTData[] public NFTs */\n    tag_22:\n      0x00\n      dup2\n      dup2\n      sload\n      dup2\n      lt\n      tag_37\n      jumpi\n      0x00\n      dup1\n      revert\n    tag_37:\n      swap1\n      0x00\n      mstore\n      keccak256(0x00, 0x20)\n      swap1\n      0x04\n      mul\n      add\n      0x00\n      swap2\n      pop\n      swap1\n      pop\n      dup1\n      0x00\n      add\n      dup1\n      sload\n      tag_39\n      swap1\n      tag_40\n      jump\t// in\n    tag_39:\n      dup1\n      0x1f\n      add\n      0x20\n      dup1\n      swap2\n      div\n      mul\n      0x20\n      add\n      mload(0x40)\n      swap1\n      dup2\n      add\n      0x40\n      mstore\n      dup1\n      swap3\n      swap2\n      swap1\n      dup2\n      dup2\n      mstore\n      0x20\n      add\n      dup3\n      dup1\n      sload\n      tag_41\n      swap1\n      tag_40\n      jump\t// in\n    tag_41:\n      dup1\n      iszero\n      tag_42\n      jumpi\n      dup1\n      0x1f\n      lt\n      tag_43\n      jumpi\n      0x0100\n      dup1\n      dup4\n      sload\n      div\n      mul\n      dup4\n      mstore\n      swap2\n      0x20\n      add\n      swap2\n      jump(tag_42)\n    tag_43:\n      dup3\n      add\n      swap2\n      swap1\n      0x00\n      mstore\n      keccak256(0x00, 0x20)\n      swap1\n    tag_44:\n      dup2\n      sload\n      dup2\n      mstore\n      swap1\n      0x01\n      add\n      swap1\n      0x20\n      add\n      dup1\n      dup4\n      gt\n      tag_44\n      jumpi\n      dup3\n      swap1\n      sub\n      0x1f\n      and\n      dup3\n      add\n      swap2\n    tag_42:\n      pop\n      pop\n      pop\n      pop\n      pop\n      swap1\n      dup1\n      0x01\n      add\n      0x00\n      swap1\n      sload\n      swap1\n      0x0100\n      exp\n      swap1\n      div\n      0xffffffffffffffffffffffffffffffffffffffff\n      and\n      swap1\n      dup1\n      0x02\n      add\n      sload\n      swap1\n      dup1\n      0x03\n      add\n      sload\n      swap1\n      pop\n      dup5\n      jump\t// out\n        /* \"src/NFT.sol\":1419:1906  function buyNFTById( uint256 id) public payable {... */\n    tag_27:\n        /* \"src/NFT.sol\":1477:1498  NFTData storage token */\n      0x00\n        /* \"src/NFT.sol\":1501:1505  NFTs */\n      dup1\n        /* \"src/NFT.sol\":1506:1508  id */\n      dup3\n        /* \"src/NFT.sol\":1501:1509  NFTs[id] */\n      dup2\n      sload\n      dup2\n      lt\n      tag_46\n      jumpi\n      tag_47\n      tag_48\n      jump\t// in\n    tag_47:\n    tag_46:\n      swap1\n      0x00\n      mstore\n      keccak256(0x00, 0x20)\n      swap1\n      0x04\n      mul\n      add\n        /* \"src/NFT.sol\":1477:1509  NFTData storage token = NFTs[id] */\n      swap1\n      pop\n        /* \"src/NFT.sol\":1621:1622  0 */\n      0x00\n        /* \"src/NFT.sol\":1607:1612  token */\n      dup2\n        /* \"src/NFT.sol\":1607:1618  token.price */\n      0x03\n      add\n      sload\n        /* \"src/NFT.sol\":1607:1622  token.price > 0 */\n      gt\n        /* \"src/NFT.sol\":1599:1650  require(token.price > 0, \"This NFT does not exist\") */\n      tag_50\n      jumpi\n      mload(0x40)\n      0x08c379a000000000000000000000000000000000000000000000000000000000\n      dup2\n      mstore\n      0x04\n      add\n      tag_51\n      swap1\n      tag_52\n      jump\t// in\n    tag_51:\n      mload(0x40)\n      dup1\n      swap2\n      sub\n      swap1\n      revert\n    tag_50:\n        /* \"src/NFT.sol\":1722:1731  msg.value */\n      callvalue\n        /* \"src/NFT.sol\":1707:1712  token */\n      dup2\n        /* \"src/NFT.sol\":1707:1718  token.price */\n      0x03\n      add\n      sload\n        /* \"src/NFT.sol\":1707:1731  token.price <= msg.value */\n      gt\n      iszero\n        /* \"src/NFT.sol\":1699:1757  require(token.price <= msg.value, \"Not enough funds sent\") */\n      tag_53\n      jumpi\n      mload(0x40)\n      0x08c379a000000000000000000000000000000000000000000000000000000000\n      dup2\n      mstore\n      0x04\n      add\n      tag_54\n      swap1\n      tag_55\n      jump\t// in\n    tag_54:\n      mload(0x40)\n      dup1\n      swap2\n      sub\n      swap1\n      revert\n    tag_53:\n        /* \"src/NFT.sol\":1846:1856  msg.sender */\n      caller\n        /* \"src/NFT.sol\":1832:1837  token */\n      dup2\n        /* \"src/NFT.sol\":1832:1843  token.owner */\n      0x01\n      add\n      0x00\n        /* \"src/NFT.sol\":1832:1856  token.owner = msg.sender */\n      0x0100\n      exp\n      dup2\n      sload\n      dup2\n      0xffffffffffffffffffffffffffffffffffffffff\n      mul\n      not\n      and\n      swap1\n      dup4\n      0xffffffffffffffffffffffffffffffffffffffff\n      and\n      mul\n      or\n      swap1\n      sstore\n      pop\n        /* \"src/NFT.sol\":1866:1877  NFTsByOwner */\n      0x01\n        /* \"src/NFT.sol\":1866:1889  NFTsByOwner[msg.sender] */\n      0x00\n        /* \"src/NFT.sol\":1878:1888  msg.sender */\n      caller\n        /* \"src/NFT.sol\":1866:1889  NFTsByOwner[msg.sender] */\n      0xffffffffffffffffffffffffffffffffffffffff\n      and\n      0xffffffffffffffffffffffffffffffffffffffff\n      and\n      dup2\n      mstore\n      0x20\n      add\n      swap1\n      dup2\n      mstore\n      0x20\n      add\n      0x00\n      keccak256\n        /* \"src/NFT.sol\":1895:1897  id */\n      dup3\n        /* \"src/NFT.sol\":1866:1898  NFTsByOwner[msg.sender].push(id) */\n      swap1\n      dup1\n      0x01\n      dup2\n      sload\n      add\n      dup1\n      dup3\n      sstore\n      dup1\n      swap2\n      pop\n      pop\n      0x01\n      swap1\n      sub\n      swap1\n      0x00\n      mstore\n      keccak256(0x00, 0x20)\n      add\n      0x00\n      swap1\n      swap2\n      swap1\n      swap2\n      swap1\n      swap2\n      pop\n      sstore\n        /* \"src/NFT.sol\":1467:1906  {... */\n      pop\n        /* \"src/NFT.sol\":1419:1906  function buyNFTById( uint256 id) public payable {... */\n      pop\n      jump\t// out\n        /* \"#utility.yul\":7:82   */\n    tag_57:\n        /* \"#utility.yul\":40:46   */\n      0x00\n        /* \"#utility.yul\":73:75   */\n      0x40\n        /* \"#utility.yul\":67:76   */\n      mload\n        /* \"#utility.yul\":57:76   */\n      swap1\n      pop\n        /* \"#utility.yul\":7:82   */\n      swap1\n      jump\t// out\n        /* \"#utility.yul\":88:205   */\n    tag_58:\n        /* \"#utility.yul\":197:198   */\n      0x00\n        /* \"#utility.yul\":194:195   */\n      dup1\n        /* \"#utility.yul\":187:199   */\n      revert\n        /* \"#utility.yul\":211:328   */\n    tag_59:\n        /* \"#utility.yul\":320:321   */\n      0x00\n        /* \"#utility.yul\":317:318   */\n      dup1\n        /* \"#utility.yul\":310:322   */\n      revert\n        /* \"#utility.yul\":334:451   */\n    tag_60:\n        /* \"#utility.yul\":443:444   */\n      0x00\n        /* \"#utility.yul\":440:441   */\n      dup1\n        /* \"#utility.yul\":433:445   */\n      revert\n        /* \"#utility.yul\":457:574   */\n    tag_61:\n        /* \"#utility.yul\":566:567   */\n      0x00\n        /* \"#utility.yul\":563:564   */\n      dup1\n        /* \"#utility.yul\":556:568   */\n      revert\n        /* \"#utility.yul\":580:682   */\n    tag_62:\n        /* \"#utility.yul\":621:627   */\n      0x00\n        /* \"#utility.yul\":672:674   */\n      0x1f\n        /* \"#utility.yul\":668:675   */\n      not\n        /* \"#utility.yul\":663:665   */\n      0x1f\n        /* \"#utility.yul\":656:661   */\n      dup4\n        /* \"#utility.yul\":652:666   */\n      add\n        /* \"#utility.yul\":648:676   */\n      and\n        /* \"#utility.yul\":638:676   */\n      swap1\n      pop\n        /* \"#utility.yul\":580:682   */\n      swap2\n      swap1\n      pop\n      jump\t// out\n        /* \"#utility.yul\":688:868   */\n    tag_63:\n        /* \"#utility.yul\":736:813   */\n      0x4e487b7100000000000000000000000000000000000000000000000000000000\n        /* \"#utility.yul\":733:734   */\n      0x00\n        /* \"#utility.yul\":726:814   */\n      mstore\n        /* \"#utility.yul\":833:837   */\n      0x41\n        /* \"#utility.yul\":830:831   */\n      0x04\n        /* \"#utility.yul\":823:838   */\n      mstore\n        /* \"#utility.yul\":857:861   */\n      0x24\n        /* \"#utility.yul\":854:855   */\n      0x00\n        /* \"#utility.yul\":847:862   */\n      revert\n        /* \"#utility.yul\":874:1155   */\n    tag_64:\n        /* \"#utility.yul\":957:984   */\n      tag_114\n        /* \"#utility.yul\":979:983   */\n      dup3\n        /* \"#utility.yul\":957:984   */\n      tag_62\n      jump\t// in\n    tag_114:\n        /* \"#utility.yul\":949:955   */\n      dup2\n        /* \"#utility.yul\":945:985   */\n      add\n        /* \"#utility.yul\":1087:1093   */\n      dup2\n        /* \"#utility.yul\":1075:1085   */\n      dup2\n        /* \"#utility.yul\":1072:1094   */\n      lt\n        /* \"#utility.yul\":1051:1069   */\n      0xffffffffffffffff\n        /* \"#utility.yul\":1039:1049   */\n      dup3\n        /* \"#utility.yul\":1036:1070   */\n      gt\n        /* \"#utility.yul\":1033:1095   */\n      or\n        /* \"#utility.yul\":1030:1118   */\n      iszero\n      tag_115\n      jumpi\n        /* \"#utility.yul\":1098:1116   */\n      tag_116\n      tag_63\n      jump\t// in\n    tag_116:\n        /* \"#utility.yul\":1030:1118   */\n    tag_115:\n        /* \"#utility.yul\":1138:1148   */\n      dup1\n        /* \"#utility.yul\":1134:1136   */\n      0x40\n        /* \"#utility.yul\":1127:1149   */\n      mstore\n        /* \"#utility.yul\":917:1155   */\n      pop\n        /* \"#utility.yul\":874:1155   */\n      pop\n      pop\n      jump\t// out\n        /* \"#utility.yul\":1161:1290   */\n    tag_65:\n        /* \"#utility.yul\":1195:1201   */\n      0x00\n        /* \"#utility.yul\":1222:1242   */\n      tag_118\n      tag_57\n      jump\t// in\n    tag_118:\n        /* \"#utility.yul\":1212:1242   */\n      swap1\n      pop\n        /* \"#utility.yul\":1251:1284   */\n      tag_119\n        /* \"#utility.yul\":1279:1283   */\n      dup3\n        /* \"#utility.yul\":1271:1277   */\n      dup3\n        /* \"#utility.yul\":1251:1284   */\n      tag_64\n      jump\t// in\n    tag_119:\n        /* \"#utility.yul\":1161:1290   */\n      swap2\n      swap1\n      pop\n      jump\t// out\n        /* \"#utility.yul\":1296:1604   */\n    tag_66:\n        /* \"#utility.yul\":1358:1362   */\n      0x00\n        /* \"#utility.yul\":1448:1466   */\n      0xffffffffffffffff\n        /* \"#utility.yul\":1440:1446   */\n      dup3\n        /* \"#utility.yul\":1437:1467   */\n      gt\n        /* \"#utility.yul\":1434:1490   */\n      iszero\n      tag_121\n      jumpi\n        /* \"#utility.yul\":1470:1488   */\n      tag_122\n      tag_63\n      jump\t// in\n    tag_122:\n        /* \"#utility.yul\":1434:1490   */\n    tag_121:\n        /* \"#utility.yul\":1508:1537   */\n      tag_123\n        /* \"#utility.yul\":1530:1536   */\n      dup3\n        /* \"#utility.yul\":1508:1537   */\n      tag_62\n      jump\t// in\n    tag_123:\n        /* \"#utility.yul\":1500:1537   */\n      swap1\n      pop\n        /* \"#utility.yul\":1592:1596   */\n      0x20\n        /* \"#utility.yul\":1586:1590   */\n      dup2\n        /* \"#utility.yul\":1582:1597   */\n      add\n        /* \"#utility.yul\":1574:1597   */\n      swap1\n      pop\n        /* \"#utility.yul\":1296:1604   */\n      swap2\n      swap1\n      pop\n      jump\t// out\n        /* \"#utility.yul\":1610:1756   */\n    tag_67:\n        /* \"#utility.yul\":1707:1713   */\n      dup3\n        /* \"#utility.yul\":1702:1705   */\n      dup2\n        /* \"#utility.yul\":1697:1700   */\n      dup4\n        /* \"#utility.yul\":1684:1714   */\n      calldatacopy\n        /* \"#utility.yul\":1748:1749   */\n      0x00\n        /* \"#utility.yul\":1739:1745   */\n      dup4\n        /* \"#utility.yul\":1734:1737   */\n      dup4\n        /* \"#utility.yul\":1730:1746   */\n      add\n        /* \"#utility.yul\":1723:1750   */\n      mstore\n        /* \"#utility.yul\":1610:1756   */\n      pop\n      pop\n      pop\n      jump\t// out\n        /* \"#utility.yul\":1762:2187   */\n    tag_68:\n        /* \"#utility.yul\":1840:1845   */\n      0x00\n        /* \"#utility.yul\":1865:1931   */\n      tag_126\n        /* \"#utility.yul\":1881:1930   */\n      tag_127\n        /* \"#utility.yul\":1923:1929   */\n      dup5\n        /* \"#utility.yul\":1881:1930   */\n      tag_66\n      jump\t// in\n    tag_127:\n        /* \"#utility.yul\":1865:1931   */\n      tag_65\n      jump\t// in\n    tag_126:\n        /* \"#utility.yul\":1856:1931   */\n      swap1\n      pop\n        /* \"#utility.yul\":1954:1960   */\n      dup3\n        /* \"#utility.yul\":1947:1952   */\n      dup2\n        /* \"#utility.yul\":1940:1961   */\n      mstore\n        /* \"#utility.yul\":1992:1996   */\n      0x20\n        /* \"#utility.yul\":1985:1990   */\n      dup2\n        /* \"#utility.yul\":1981:1997   */\n      add\n        /* \"#utility.yul\":2030:2033   */\n      dup5\n        /* \"#utility.yul\":2021:2027   */\n      dup5\n        /* \"#utility.yul\":2016:2019   */\n      dup5\n        /* \"#utility.yul\":2012:2028   */\n      add\n        /* \"#utility.yul\":2009:2034   */\n      gt\n        /* \"#utility.yul\":2006:2118   */\n      iszero\n      tag_128\n      jumpi\n        /* \"#utility.yul\":2037:2116   */\n      tag_129\n      tag_61\n      jump\t// in\n    tag_129:\n        /* \"#utility.yul\":2006:2118   */\n    tag_128:\n        /* \"#utility.yul\":2127:2181   */\n      tag_130\n        /* \"#utility.yul\":2174:2180   */\n      dup5\n        /* \"#utility.yul\":2169:2172   */\n      dup3\n        /* \"#utility.yul\":2164:2167   */\n      dup6\n        /* \"#utility.yul\":2127:2181   */\n      tag_67\n      jump\t// in\n    tag_130:\n        /* \"#utility.yul\":1846:2187   */\n      pop\n        /* \"#utility.yul\":1762:2187   */\n      swap4\n      swap3\n      pop\n      pop\n      pop\n      jump\t// out\n        /* \"#utility.yul\":2207:2547   */\n    tag_69:\n        /* \"#utility.yul\":2263:2268   */\n      0x00\n        /* \"#utility.yul\":2312:2315   */\n      dup3\n        /* \"#utility.yul\":2305:2309   */\n      0x1f\n        /* \"#utility.yul\":2297:2303   */\n      dup4\n        /* \"#utility.yul\":2293:2310   */\n      add\n        /* \"#utility.yul\":2289:2316   */\n      slt\n        /* \"#utility.yul\":2279:2401   */\n      tag_132\n      jumpi\n        /* \"#utility.yul\":2320:2399   */\n      tag_133\n      tag_60\n      jump\t// in\n    tag_133:\n        /* \"#utility.yul\":2279:2401   */\n    tag_132:\n        /* \"#utility.yul\":2437:2443   */\n      dup2\n        /* \"#utility.yul\":2424:2444   */\n      calldataload\n        /* \"#utility.yul\":2462:2541   */\n      tag_134\n        /* \"#utility.yul\":2537:2540   */\n      dup5\n        /* \"#utility.yul\":2529:2535   */\n      dup3\n        /* \"#utility.yul\":2522:2526   */\n      0x20\n        /* \"#utility.yul\":2514:2520   */\n      dup7\n        /* \"#utility.yul\":2510:2527   */\n      add\n        /* \"#utility.yul\":2462:2541   */\n      tag_68\n      jump\t// in\n    tag_134:\n        /* \"#utility.yul\":2453:2541   */\n      swap2\n      pop\n        /* \"#utility.yul\":2269:2547   */\n      pop\n        /* \"#utility.yul\":2207:2547   */\n      swap3\n      swap2\n      pop\n      pop\n      jump\t// out\n        /* \"#utility.yul\":2553:2630   */\n    tag_70:\n        /* \"#utility.yul\":2590:2597   */\n      0x00\n        /* \"#utility.yul\":2619:2624   */\n      dup2\n        /* \"#utility.yul\":2608:2624   */\n      swap1\n      pop\n        /* \"#utility.yul\":2553:2630   */\n      swap2\n      swap1\n      pop\n      jump\t// out\n        /* \"#utility.yul\":2636:2758   */\n    tag_71:\n        /* \"#utility.yul\":2709:2733   */\n      tag_137\n        /* \"#utility.yul\":2727:2732   */\n      dup2\n        /* \"#utility.yul\":2709:2733   */\n      tag_70\n      jump\t// in\n    tag_137:\n        /* \"#utility.yul\":2702:2707   */\n      dup2\n        /* \"#utility.yul\":2699:2734   */\n      eq\n        /* \"#utility.yul\":2689:2752   */\n      tag_138\n      jumpi\n        /* \"#utility.yul\":2748:2749   */\n      0x00\n        /* \"#utility.yul\":2745:2746   */\n      dup1\n        /* \"#utility.yul\":2738:2750   */\n      revert\n        /* \"#utility.yul\":2689:2752   */\n    tag_138:\n        /* \"#utility.yul\":2636:2758   */\n      pop\n      jump\t// out\n        /* \"#utility.yul\":2764:2903   */\n    tag_72:\n        /* \"#utility.yul\":2810:2815   */\n      0x00\n        /* \"#utility.yul\":2848:2854   */\n      dup2\n        /* \"#utility.yul\":2835:2855   */\n      calldataload\n        /* \"#utility.yul\":2826:2855   */\n      swap1\n      pop\n        /* \"#utility.yul\":2864:2897   */\n      tag_140\n        /* \"#utility.yul\":2891:2896   */\n      dup2\n        /* \"#utility.yul\":2864:2897   */\n      tag_71\n      jump\t// in\n    tag_140:\n        /* \"#utility.yul\":2764:2903   */\n      swap3\n      swap2\n      pop\n      pop\n      jump\t// out\n        /* \"#utility.yul\":2909:3563   */\n    tag_9:\n        /* \"#utility.yul\":2987:2993   */\n      0x00\n        /* \"#utility.yul\":2995:3001   */\n      dup1\n        /* \"#utility.yul\":3044:3046   */\n      0x40\n        /* \"#utility.yul\":3032:3041   */\n      dup4\n        /* \"#utility.yul\":3023:3030   */\n      dup6\n        /* \"#utility.yul\":3019:3042   */\n      sub\n        /* \"#utility.yul\":3015:3047   */\n      slt\n        /* \"#utility.yul\":3012:3131   */\n      iszero\n      tag_142\n      jumpi\n        /* \"#utility.yul\":3050:3129   */\n      tag_143\n      tag_58\n      jump\t// in\n    tag_143:\n        /* \"#utility.yul\":3012:3131   */\n    tag_142:\n        /* \"#utility.yul\":3198:3199   */\n      0x00\n        /* \"#utility.yul\":3187:3196   */\n      dup4\n        /* \"#utility.yul\":3183:3200   */\n      add\n        /* \"#utility.yul\":3170:3201   */\n      calldataload\n        /* \"#utility.yul\":3228:3246   */\n      0xffffffffffffffff\n        /* \"#utility.yul\":3220:3226   */\n      dup2\n        /* \"#utility.yul\":3217:3247   */\n      gt\n        /* \"#utility.yul\":3214:3331   */\n      iszero\n      tag_144\n      jumpi\n        /* \"#utility.yul\":3250:3329   */\n      tag_145\n      tag_59\n      jump\t// in\n    tag_145:\n        /* \"#utility.yul\":3214:3331   */\n    tag_144:\n        /* \"#utility.yul\":3355:3418   */\n      tag_146\n        /* \"#utility.yul\":3410:3417   */\n      dup6\n        /* \"#utility.yul\":3401:3407   */\n      dup3\n        /* \"#utility.yul\":3390:3399   */\n      dup7\n        /* \"#utility.yul\":3386:3408   */\n      add\n        /* \"#utility.yul\":3355:3418   */\n      tag_69\n      jump\t// in\n    tag_146:\n        /* \"#utility.yul\":3345:3418   */\n      swap3\n      pop\n        /* \"#utility.yul\":3141:3428   */\n      pop\n        /* \"#utility.yul\":3467:3469   */\n      0x20\n        /* \"#utility.yul\":3493:3546   */\n      tag_147\n        /* \"#utility.yul\":3538:3545   */\n      dup6\n        /* \"#utility.yul\":3529:3535   */\n      dup3\n        /* \"#utility.yul\":3518:3527   */\n      dup7\n        /* \"#utility.yul\":3514:3536   */\n      add\n        /* \"#utility.yul\":3493:3546   */\n      tag_72\n      jump\t// in\n    tag_147:\n        /* \"#utility.yul\":3483:3546   */\n      swap2\n      pop\n        /* \"#utility.yul\":3438:3556   */\n      pop\n        /* \"#utility.yul\":2909:3563   */\n      swap3\n      pop\n      swap3\n      swap1\n      pop\n      jump\t// out\n        /* \"#utility.yul\":3569:3695   */\n    tag_73:\n        /* \"#utility.yul\":3606:3613   */\n      0x00\n        /* \"#utility.yul\":3646:3688   */\n      0xffffffffffffffffffffffffffffffffffffffff\n        /* \"#utility.yul\":3639:3644   */\n      dup3\n        /* \"#utility.yul\":3635:3689   */\n      and\n        /* \"#utility.yul\":3624:3689   */\n      swap1\n      pop\n        /* \"#utility.yul\":3569:3695   */\n      swap2\n      swap1\n      pop\n      jump\t// out\n        /* \"#utility.yul\":3701:3797   */\n    tag_74:\n        /* \"#utility.yul\":3738:3745   */\n      0x00\n        /* \"#utility.yul\":3767:3791   */\n      tag_150\n        /* \"#utility.yul\":3785:3790   */\n      dup3\n        /* \"#utility.yul\":3767:3791   */\n      tag_73\n      jump\t// in\n    tag_150:\n        /* \"#utility.yul\":3756:3791   */\n      swap1\n      pop\n        /* \"#utility.yul\":3701:3797   */\n      swap2\n      swap1\n      pop\n      jump\t// out\n        /* \"#utility.yul\":3803:3925   */\n    tag_75:\n        /* \"#utility.yul\":3876:3900   */\n      tag_152\n        /* \"#utility.yul\":3894:3899   */\n      dup2\n        /* \"#utility.yul\":3876:3900   */\n      tag_74\n      jump\t// in\n    tag_152:\n        /* \"#utility.yul\":3869:3874   */\n      dup2\n        /* \"#utility.yul\":3866:3901   */\n      eq\n        /* \"#utility.yul\":3856:3919   */\n      tag_153\n      jumpi\n        /* \"#utility.yul\":3915:3916   */\n      0x00\n        /* \"#utility.yul\":3912:3913   */\n      dup1\n        /* \"#utility.yul\":3905:3917   */\n      revert\n        /* \"#utility.yul\":3856:3919   */\n    tag_153:\n        /* \"#utility.yul\":3803:3925   */\n      pop\n      jump\t// out\n        /* \"#utility.yul\":3931:4070   */\n    tag_76:\n        /* \"#utility.yul\":3977:3982   */\n      0x00\n        /* \"#utility.yul\":4015:4021   */\n      dup2\n        /* \"#utility.yul\":4002:4022   */\n      calldataload\n        /* \"#utility.yul\":3993:4022   */\n      swap1\n      pop\n        /* \"#utility.yul\":4031:4064   */\n      tag_155\n        /* \"#utility.yul\":4058:4063   */\n      dup2\n        /* \"#utility.yul\":4031:4064   */\n      tag_75\n      jump\t// in\n    tag_155:\n        /* \"#utility.yul\":3931:4070   */\n      swap3\n      swap2\n      pop\n      pop\n      jump\t// out\n        /* \"#utility.yul\":4076:4550   */\n    tag_14:\n        /* \"#utility.yul\":4144:4150   */\n      0x00\n        /* \"#utility.yul\":4152:4158   */\n      dup1\n        /* \"#utility.yul\":4201:4203   */\n      0x40\n        /* \"#utility.yul\":4189:4198   */\n      dup4\n        /* \"#utility.yul\":4180:4187   */\n      dup6\n        /* \"#utility.yul\":4176:4199   */\n      sub\n        /* \"#utility.yul\":4172:4204   */\n      slt\n        /* \"#utility.yul\":4169:4288   */\n      iszero\n      tag_157\n      jumpi\n        /* \"#utility.yul\":4207:4286   */\n      tag_158\n      tag_58\n      jump\t// in\n    tag_158:\n        /* \"#utility.yul\":4169:4288   */\n    tag_157:\n        /* \"#utility.yul\":4327:4328   */\n      0x00\n        /* \"#utility.yul\":4352:4405   */\n      tag_159\n        /* \"#utility.yul\":4397:4404   */\n      dup6\n        /* \"#utility.yul\":4388:4394   */\n      dup3\n        /* \"#utility.yul\":4377:4386   */\n      dup7\n        /* \"#utility.yul\":4373:4395   */\n      add\n        /* \"#utility.yul\":4352:4405   */\n      tag_76\n      jump\t// in\n    tag_159:\n        /* \"#utility.yul\":4342:4405   */\n      swap3\n      pop\n        /* \"#utility.yul\":4298:4415   */\n      pop\n        /* \"#utility.yul\":4454:4456   */\n      0x20\n        /* \"#utility.yul\":4480:4533   */\n      tag_160\n        /* \"#utility.yul\":4525:4532   */\n      dup6\n        /* \"#utility.yul\":4516:4522   */\n      dup3\n        /* \"#utility.yul\":4505:4514   */\n      dup7\n        /* \"#utility.yul\":4501:4523   */\n      add\n        /* \"#utility.yul\":4480:4533   */\n      tag_72\n      jump\t// in\n    tag_160:\n        /* \"#utility.yul\":4470:4533   */\n      swap2\n      pop\n        /* \"#utility.yul\":4425:4543   */\n      pop\n        /* \"#utility.yul\":4076:4550   */\n      swap3\n      pop\n      swap3\n      swap1\n      pop\n      jump\t// out\n        /* \"#utility.yul\":4556:4674   */\n    tag_77:\n        /* \"#utility.yul\":4643:4667   */\n      tag_162\n        /* \"#utility.yul\":4661:4666   */\n      dup2\n        /* \"#utility.yul\":4643:4667   */\n      tag_70\n      jump\t// in\n    tag_162:\n        /* \"#utility.yul\":4638:4641   */\n      dup3\n        /* \"#utility.yul\":4631:4668   */\n      mstore\n        /* \"#utility.yul\":4556:4674   */\n      pop\n      pop\n      jump\t// out\n        /* \"#utility.yul\":4680:4902   */\n    tag_17:\n        /* \"#utility.yul\":4773:4777   */\n      0x00\n        /* \"#utility.yul\":4811:4813   */\n      0x20\n        /* \"#utility.yul\":4800:4809   */\n      dup3\n        /* \"#utility.yul\":4796:4814   */\n      add\n        /* \"#utility.yul\":4788:4814   */\n      swap1\n      pop\n        /* \"#utility.yul\":4824:4895   */\n      tag_164\n        /* \"#utility.yul\":4892:4893   */\n      0x00\n        /* \"#utility.yul\":4881:4890   */\n      dup4\n        /* \"#utility.yul\":4877:4894   */\n      add\n        /* \"#utility.yul\":4868:4874   */\n      dup5\n        /* \"#utility.yul\":4824:4895   */\n      tag_77\n      jump\t// in\n    tag_164:\n        /* \"#utility.yul\":4680:4902   */\n      swap3\n      swap2\n      pop\n      pop\n      jump\t// out\n        /* \"#utility.yul\":4908:5237   */\n    tag_21:\n        /* \"#utility.yul\":4967:4973   */\n      0x00\n        /* \"#utility.yul\":5016:5018   */\n      0x20\n        /* \"#utility.yul\":5004:5013   */\n      dup3\n        /* \"#utility.yul\":4995:5002   */\n      dup5\n        /* \"#utility.yul\":4991:5014   */\n      sub\n        /* \"#utility.yul\":4987:5019   */\n      slt\n        /* \"#utility.yul\":4984:5103   */\n      iszero\n      tag_166\n      jumpi\n        /* \"#utility.yul\":5022:5101   */\n      tag_167\n      tag_58\n      jump\t// in\n    tag_167:\n        /* \"#utility.yul\":4984:5103   */\n    tag_166:\n        /* \"#utility.yul\":5142:5143   */\n      0x00\n        /* \"#utility.yul\":5167:5220   */\n      tag_168\n        /* \"#utility.yul\":5212:5219   */\n      dup5\n        /* \"#utility.yul\":5203:5209   */\n      dup3\n        /* \"#utility.yul\":5192:5201   */\n      dup6\n        /* \"#utility.yul\":5188:5210   */\n      add\n        /* \"#utility.yul\":5167:5220   */\n      tag_72\n      jump\t// in\n    tag_168:\n        /* \"#utility.yul\":5157:5220   */\n      swap2\n      pop\n        /* \"#utility.yul\":5113:5230   */\n      pop\n        /* \"#utility.yul\":4908:5237   */\n      swap3\n      swap2\n      pop\n      pop\n      jump\t// out\n        /* \"#utility.yul\":5243:5342   */\n    tag_78:\n        /* \"#utility.yul\":5295:5301   */\n      0x00\n        /* \"#utility.yul\":5329:5334   */\n      dup2\n        /* \"#utility.yul\":5323:5335   */\n      mload\n        /* \"#utility.yul\":5313:5335   */\n      swap1\n      pop\n        /* \"#utility.yul\":5243:5342   */\n      swap2\n      swap1\n      pop\n      jump\t// out\n        /* \"#utility.yul\":5348:5517   */\n    tag_79:\n        /* \"#utility.yul\":5432:5443   */\n      0x00\n        /* \"#utility.yul\":5466:5472   */\n      dup3\n        /* \"#utility.yul\":5461:5464   */\n      dup3\n        /* \"#utility.yul\":5454:5473   */\n      mstore\n        /* \"#utility.yul\":5506:5510   */\n      0x20\n        /* \"#utility.yul\":5501:5504   */\n      dup3\n        /* \"#utility.yul\":5497:5511   */\n      add\n        /* \"#utility.yul\":5482:5511   */\n      swap1\n      pop\n        /* \"#utility.yul\":5348:5517   */\n      swap3\n      swap2\n      pop\n      pop\n      jump\t// out\n        /* \"#utility.yul\":5523:5769   */\n    tag_80:\n        /* \"#utility.yul\":5604:5605   */\n      0x00\n        /* \"#utility.yul\":5614:5727   */\n    tag_172:\n        /* \"#utility.yul\":5628:5634   */\n      dup4\n        /* \"#utility.yul\":5625:5626   */\n      dup2\n        /* \"#utility.yul\":5622:5635   */\n      lt\n        /* \"#utility.yul\":5614:5727   */\n      iszero\n      tag_174\n      jumpi\n        /* \"#utility.yul\":5713:5714   */\n      dup1\n        /* \"#utility.yul\":5708:5711   */\n      dup3\n        /* \"#utility.yul\":5704:5715   */\n      add\n        /* \"#utility.yul\":5698:5716   */\n      mload\n        /* \"#utility.yul\":5694:5695   */\n      dup2\n        /* \"#utility.yul\":5689:5692   */\n      dup5\n        /* \"#utility.yul\":5685:5696   */\n      add\n        /* \"#utility.yul\":5678:5717   */\n      mstore\n        /* \"#utility.yul\":5650:5652   */\n      0x20\n        /* \"#utility.yul\":5647:5648   */\n      dup2\n        /* \"#utility.yul\":5643:5653   */\n      add\n        /* \"#utility.yul\":5638:5653   */\n      swap1\n      pop\n        /* \"#utility.yul\":5614:5727   */\n      jump(tag_172)\n    tag_174:\n        /* \"#utility.yul\":5761:5762   */\n      0x00\n        /* \"#utility.yul\":5752:5758   */\n      dup5\n        /* \"#utility.yul\":5747:5750   */\n      dup5\n        /* \"#utility.yul\":5743:5759   */\n      add\n        /* \"#utility.yul\":5736:5763   */\n      mstore\n        /* \"#utility.yul\":5585:5769   */\n      pop\n        /* \"#utility.yul\":5523:5769   */\n      pop\n      pop\n      pop\n      jump\t// out\n        /* \"#utility.yul\":5775:6152   */\n    tag_81:\n        /* \"#utility.yul\":5863:5866   */\n      0x00\n        /* \"#utility.yul\":5891:5930   */\n      tag_176\n        /* \"#utility.yul\":5924:5929   */\n      dup3\n        /* \"#utility.yul\":5891:5930   */\n      tag_78\n      jump\t// in\n    tag_176:\n        /* \"#utility.yul\":5946:6017   */\n      tag_177\n        /* \"#utility.yul\":6010:6016   */\n      dup2\n        /* \"#utility.yul\":6005:6008   */\n      dup6\n        /* \"#utility.yul\":5946:6017   */\n      tag_79\n      jump\t// in\n    tag_177:\n        /* \"#utility.yul\":5939:6017   */\n      swap4\n      pop\n        /* \"#utility.yul\":6026:6091   */\n      tag_178\n        /* \"#utility.yul\":6084:6090   */\n      dup2\n        /* \"#utility.yul\":6079:6082   */\n      dup6\n        /* \"#utility.yul\":6072:6076   */\n      0x20\n        /* \"#utility.yul\":6065:6070   */\n      dup7\n        /* \"#utility.yul\":6061:6077   */\n      add\n        /* \"#utility.yul\":6026:6091   */\n      tag_80\n      jump\t// in\n    tag_178:\n        /* \"#utility.yul\":6116:6145   */\n      tag_179\n        /* \"#utility.yul\":6138:6144   */\n      dup2\n        /* \"#utility.yul\":6116:6145   */\n      tag_62\n      jump\t// in\n    tag_179:\n        /* \"#utility.yul\":6111:6114   */\n      dup5\n        /* \"#utility.yul\":6107:6146   */\n      add\n        /* \"#utility.yul\":6100:6146   */\n      swap2\n      pop\n        /* \"#utility.yul\":5867:6152   */\n      pop\n        /* \"#utility.yul\":5775:6152   */\n      swap3\n      swap2\n      pop\n      pop\n      jump\t// out\n        /* \"#utility.yul\":6158:6276   */\n    tag_82:\n        /* \"#utility.yul\":6245:6269   */\n      tag_181\n        /* \"#utility.yul\":6263:6268   */\n      dup2\n        /* \"#utility.yul\":6245:6269   */\n      tag_74\n      jump\t// in\n    tag_181:\n        /* \"#utility.yul\":6240:6243   */\n      dup3\n        /* \"#utility.yul\":6233:6270   */\n      mstore\n        /* \"#utility.yul\":6158:6276   */\n      pop\n      pop\n      jump\t// out\n        /* \"#utility.yul\":6282:6926   */\n    tag_24:\n        /* \"#utility.yul\":6479:6483   */\n      0x00\n        /* \"#utility.yul\":6517:6520   */\n      0x80\n        /* \"#utility.yul\":6506:6515   */\n      dup3\n        /* \"#utility.yul\":6502:6521   */\n      add\n        /* \"#utility.yul\":6494:6521   */\n      swap1\n      pop\n        /* \"#utility.yul\":6567:6576   */\n      dup2\n        /* \"#utility.yul\":6561:6565   */\n      dup2\n        /* \"#utility.yul\":6557:6577   */\n      sub\n        /* \"#utility.yul\":6553:6554   */\n      0x00\n        /* \"#utility.yul\":6542:6551   */\n      dup4\n        /* \"#utility.yul\":6538:6555   */\n      add\n        /* \"#utility.yul\":6531:6578   */\n      mstore\n        /* \"#utility.yul\":6595:6673   */\n      tag_183\n        /* \"#utility.yul\":6668:6672   */\n      dup2\n        /* \"#utility.yul\":6659:6665   */\n      dup8\n        /* \"#utility.yul\":6595:6673   */\n      tag_81\n      jump\t// in\n    tag_183:\n        /* \"#utility.yul\":6587:6673   */\n      swap1\n      pop\n        /* \"#utility.yul\":6683:6755   */\n      tag_184\n        /* \"#utility.yul\":6751:6753   */\n      0x20\n        /* \"#utility.yul\":6740:6749   */\n      dup4\n        /* \"#utility.yul\":6736:6754   */\n      add\n        /* \"#utility.yul\":6727:6733   */\n      dup7\n        /* \"#utility.yul\":6683:6755   */\n      tag_82\n      jump\t// in\n    tag_184:\n        /* \"#utility.yul\":6765:6837   */\n      tag_185\n        /* \"#utility.yul\":6833:6835   */\n      0x40\n        /* \"#utility.yul\":6822:6831   */\n      dup4\n        /* \"#utility.yul\":6818:6836   */\n      add\n        /* \"#utility.yul\":6809:6815   */\n      dup6\n        /* \"#utility.yul\":6765:6837   */\n      tag_77\n      jump\t// in\n    tag_185:\n        /* \"#utility.yul\":6847:6919   */\n      tag_186\n        /* \"#utility.yul\":6915:6917   */\n      0x60\n        /* \"#utility.yul\":6904:6913   */\n      dup4\n        /* \"#utility.yul\":6900:6918   */\n      add\n        /* \"#utility.yul\":6891:6897   */\n      dup5\n        /* \"#utility.yul\":6847:6919   */\n      tag_77\n      jump\t// in\n    tag_186:\n        /* \"#utility.yul\":6282:6926   */\n      swap6\n      swap5\n      pop\n      pop\n      pop\n      pop\n      pop\n      jump\t// out\n        /* \"#utility.yul\":6932:7101   */\n    tag_83:\n        /* \"#utility.yul\":7072:7093   */\n      0x4f6e6c792061646d696e2063616e206d696e7400000000000000000000000000\n        /* \"#utility.yul\":7068:7069   */\n      0x00\n        /* \"#utility.yul\":7060:7066   */\n      dup3\n        /* \"#utility.yul\":7056:7070   */\n      add\n        /* \"#utility.yul\":7049:7094   */\n      mstore\n        /* \"#utility.yul\":6932:7101   */\n      pop\n      jump\t// out\n        /* \"#utility.yul\":7107:7473   */\n    tag_84:\n        /* \"#utility.yul\":7249:7252   */\n      0x00\n        /* \"#utility.yul\":7270:7337   */\n      tag_189\n        /* \"#utility.yul\":7334:7336   */\n      0x13\n        /* \"#utility.yul\":7329:7332   */\n      dup4\n        /* \"#utility.yul\":7270:7337   */\n      tag_79\n      jump\t// in\n    tag_189:\n        /* \"#utility.yul\":7263:7337   */\n      swap2\n      pop\n        /* \"#utility.yul\":7346:7439   */\n      tag_190\n        /* \"#utility.yul\":7435:7438   */\n      dup3\n        /* \"#utility.yul\":7346:7439   */\n      tag_83\n      jump\t// in\n    tag_190:\n        /* \"#utility.yul\":7464:7466   */\n      0x20\n        /* \"#utility.yul\":7459:7462   */\n      dup3\n        /* \"#utility.yul\":7455:7467   */\n      add\n        /* \"#utility.yul\":7448:7467   */\n      swap1\n      pop\n        /* \"#utility.yul\":7107:7473   */\n      swap2\n      swap1\n      pop\n      jump\t// out\n        /* \"#utility.yul\":7479:7898   */\n    tag_31:\n        /* \"#utility.yul\":7645:7649   */\n      0x00\n        /* \"#utility.yul\":7683:7685   */\n      0x20\n        /* \"#utility.yul\":7672:7681   */\n      dup3\n        /* \"#utility.yul\":7668:7686   */\n      add\n        /* \"#utility.yul\":7660:7686   */\n      swap1\n      pop\n        /* \"#utility.yul\":7732:7741   */\n      dup2\n        /* \"#utility.yul\":7726:7730   */\n      dup2\n        /* \"#utility.yul\":7722:7742   */\n      sub\n        /* \"#utility.yul\":7718:7719   */\n      0x00\n        /* \"#utility.yul\":7707:7716   */\n      dup4\n        /* \"#utility.yul\":7703:7720   */\n      add\n        /* \"#utility.yul\":7696:7743   */\n      mstore\n        /* \"#utility.yul\":7760:7891   */\n      tag_192\n        /* \"#utility.yul\":7886:7890   */\n      dup2\n        /* \"#utility.yul\":7760:7891   */\n      tag_84\n      jump\t// in\n    tag_192:\n        /* \"#utility.yul\":7752:7891   */\n      swap1\n      pop\n        /* \"#utility.yul\":7479:7898   */\n      swap2\n      swap1\n      pop\n      jump\t// out\n        /* \"#utility.yul\":7904:8084   */\n    tag_85:\n        /* \"#utility.yul\":7952:8029   */\n      0x4e487b7100000000000000000000000000000000000000000000000000000000\n        /* \"#utility.yul\":7949:7950   */\n      0x00\n        /* \"#utility.yul\":7942:8030   */\n      mstore\n        /* \"#utility.yul\":8049:8053   */\n      0x22\n        /* \"#utility.yul\":8046:8047   */\n      0x04\n        /* \"#utility.yul\":8039:8054   */\n      mstore\n        /* \"#utility.yul\":8073:8077   */\n      0x24\n        /* \"#utility.yul\":8070:8071   */\n      0x00\n        /* \"#utility.yul\":8063:8078   */\n      revert\n        /* \"#utility.yul\":8090:8410   */\n    tag_40:\n        /* \"#utility.yul\":8134:8140   */\n      0x00\n        /* \"#utility.yul\":8171:8172   */\n      0x02\n        /* \"#utility.yul\":8165:8169   */\n      dup3\n        /* \"#utility.yul\":8161:8173   */\n      div\n        /* \"#utility.yul\":8151:8173   */\n      swap1\n      pop\n        /* \"#utility.yul\":8218:8219   */\n      0x01\n        /* \"#utility.yul\":8212:8216   */\n      dup3\n        /* \"#utility.yul\":8208:8220   */\n      and\n        /* \"#utility.yul\":8239:8257   */\n      dup1\n        /* \"#utility.yul\":8229:8310   */\n      tag_195\n      jumpi\n        /* \"#utility.yul\":8295:8299   */\n      0x7f\n        /* \"#utility.yul\":8287:8293   */\n      dup3\n        /* \"#utility.yul\":8283:8300   */\n      and\n        /* \"#utility.yul\":8273:8300   */\n      swap2\n      pop\n        /* \"#utility.yul\":8229:8310   */\n    tag_195:\n        /* \"#utility.yul\":8357:8359   */\n      0x20\n        /* \"#utility.yul\":8349:8355   */\n      dup3\n        /* \"#utility.yul\":8346:8360   */\n      lt\n        /* \"#utility.yul\":8326:8344   */\n      dup2\n        /* \"#utility.yul\":8323:8361   */\n      sub\n        /* \"#utility.yul\":8320:8404   */\n      tag_196\n      jumpi\n        /* \"#utility.yul\":8376:8394   */\n      tag_197\n      tag_85\n      jump\t// in\n    tag_197:\n        /* \"#utility.yul\":8320:8404   */\n    tag_196:\n        /* \"#utility.yul\":8141:8410   */\n      pop\n        /* \"#utility.yul\":8090:8410   */\n      swap2\n      swap1\n      pop\n      jump\t// out\n        /* \"#utility.yul\":8416:8557   */\n    tag_86:\n        /* \"#utility.yul\":8465:8469   */\n      0x00\n        /* \"#utility.yul\":8488:8491   */\n      dup2\n        /* \"#utility.yul\":8480:8491   */\n      swap1\n      pop\n        /* \"#utility.yul\":8511:8514   */\n      dup2\n        /* \"#utility.yul\":8508:8509   */\n      0x00\n        /* \"#utility.yul\":8501:8515   */\n      mstore\n        /* \"#utility.yul\":8545:8549   */\n      0x20\n        /* \"#utility.yul\":8542:8543   */\n      0x00\n        /* \"#utility.yul\":8532:8550   */\n      keccak256\n        /* \"#utility.yul\":8524:8550   */\n      swap1\n      pop\n        /* \"#utility.yul\":8416:8557   */\n      swap2\n      swap1\n      pop\n      jump\t// out\n        /* \"#utility.yul\":8563:8656   */\n    tag_87:\n        /* \"#utility.yul\":8600:8606   */\n      0x00\n        /* \"#utility.yul\":8647:8649   */\n      0x20\n        /* \"#utility.yul\":8642:8644   */\n      0x1f\n        /* \"#utility.yul\":8635:8640   */\n      dup4\n        /* \"#utility.yul\":8631:8645   */\n      add\n        /* \"#utility.yul\":8627:8650   */\n      div\n        /* \"#utility.yul\":8617:8650   */\n      swap1\n      pop\n        /* \"#utility.yul\":8563:8656   */\n      swap2\n      swap1\n      pop\n      jump\t// out\n        /* \"#utility.yul\":8662:8769   */\n    tag_88:\n        /* \"#utility.yul\":8706:8714   */\n      0x00\n        /* \"#utility.yul\":8756:8761   */\n      dup3\n        /* \"#utility.yul\":8750:8754   */\n      dup3\n        /* \"#utility.yul\":8746:8762   */\n      shl\n        /* \"#utility.yul\":8725:8762   */\n      swap1\n      pop\n        /* \"#utility.yul\":8662:8769   */\n      swap3\n      swap2\n      pop\n      pop\n      jump\t// out\n        /* \"#utility.yul\":8775:9168   */\n    tag_89:\n        /* \"#utility.yul\":8844:8850   */\n      0x00\n        /* \"#utility.yul\":8894:8895   */\n      0x08\n        /* \"#utility.yul\":8882:8892   */\n      dup4\n        /* \"#utility.yul\":8878:8896   */\n      mul\n        /* \"#utility.yul\":8917:9014   */\n      tag_202\n        /* \"#utility.yul\":8947:9013   */\n      0xffffffffffffffffffffffffffffffffffffffffffffffffffffffffffffffff\n        /* \"#utility.yul\":8936:8945   */\n      dup3\n        /* \"#utility.yul\":8917:9014   */\n      tag_88\n      jump\t// in\n    tag_202:\n        /* \"#utility.yul\":9035:9074   */\n      tag_203\n        /* \"#utility.yul\":9065:9073   */\n      dup7\n        /* \"#utility.yul\":9054:9063   */\n      dup4\n        /* \"#utility.yul\":9035:9074   */\n      tag_88\n      jump\t// in\n    tag_203:\n        /* \"#utility.yul\":9023:9074   */\n      swap6\n      pop\n        /* \"#utility.yul\":9107:9111   */\n      dup1\n        /* \"#utility.yul\":9103:9112   */\n      not\n        /* \"#utility.yul\":9096:9101   */\n      dup5\n        /* \"#utility.yul\":9092:9113   */\n      and\n        /* \"#utility.yul\":9083:9113   */\n      swap4\n      pop\n        /* \"#utility.yul\":9156:9160   */\n      dup1\n        /* \"#utility.yul\":9146:9154   */\n      dup7\n        /* \"#utility.yul\":9142:9161   */\n      and\n        /* \"#utility.yul\":9135:9140   */\n      dup5\n        /* \"#utility.yul\":9132:9162   */\n      or\n        /* \"#utility.yul\":9122:9162   */\n      swap3\n      pop\n        /* \"#utility.yul\":8851:9168   */\n      pop\n      pop\n        /* \"#utility.yul\":8775:9168   */\n      swap4\n      swap3\n      pop\n      pop\n      pop\n      jump\t// out\n        /* \"#utility.yul\":9174:9234   */\n    tag_90:\n        /* \"#utility.yul\":9202:9205   */\n      0x00\n        /* \"#utility.yul\":9223:9228   */\n      dup2\n        /* \"#utility.yul\":9216:9228   */\n      swap1\n      pop\n        /* \"#utility.yul\":9174:9234   */\n      swap2\n      swap1\n      pop\n      jump\t// out\n        /* \"#utility.yul\":9240:9382   */\n    tag_91:\n        /* \"#utility.yul\":9290:9299   */\n      0x00\n        /* \"#utility.yul\":9323:9376   */\n      tag_206\n        /* \"#utility.yul\":9341:9375   */\n      tag_207\n        /* \"#utility.yul\":9350:9374   */\n      tag_208\n        /* \"#utility.yul\":9368:9373   */\n      dup5\n        /* \"#utility.yul\":9350:9374   */\n      tag_70\n      jump\t// in\n    tag_208:\n        /* \"#utility.yul\":9341:9375   */\n      tag_90\n      jump\t// in\n    tag_207:\n        /* \"#utility.yul\":9323:9376   */\n      tag_70\n      jump\t// in\n    tag_206:\n        /* \"#utility.yul\":9310:9376   */\n      swap1\n      pop\n        /* \"#utility.yul\":9240:9382   */\n      swap2\n      swap1\n      pop\n      jump\t// out\n        /* \"#utility.yul\":9388:9463   */\n    tag_92:\n        /* \"#utility.yul\":9431:9434   */\n      0x00\n        /* \"#utility.yul\":9452:9457   */\n      dup2\n        /* \"#utility.yul\":9445:9457   */\n      swap1\n      pop\n        /* \"#utility.yul\":9388:9463   */\n      swap2\n      swap1\n      pop\n      jump\t// out\n        /* \"#utility.yul\":9469:9738   */\n    tag_93:\n        /* \"#utility.yul\":9579:9618   */\n      tag_211\n        /* \"#utility.yul\":9610:9617   */\n      dup4\n        /* \"#utility.yul\":9579:9618   */\n      tag_91\n      jump\t// in\n    tag_211:\n        /* \"#utility.yul\":9640:9731   */\n      tag_212\n        /* \"#utility.yul\":9689:9730   */\n      tag_213\n        /* \"#utility.yul\":9713:9729   */\n      dup3\n        /* \"#utility.yul\":9689:9730   */\n      tag_92\n      jump\t// in\n    tag_213:\n        /* \"#utility.yul\":9681:9687   */\n      dup5\n        /* \"#utility.yul\":9674:9678   */\n      dup5\n        /* \"#utility.yul\":9668:9679   */\n      sload\n        /* \"#utility.yul\":9640:9731   */\n      tag_89\n      jump\t// in\n    tag_212:\n        /* \"#utility.yul\":9634:9638   */\n      dup3\n        /* \"#utility.yul\":9627:9732   */\n      sstore\n        /* \"#utility.yul\":9545:9738   */\n      pop\n        /* \"#utility.yul\":9469:9738   */\n      pop\n      pop\n      pop\n      jump\t// out\n        /* \"#utility.yul\":9744:9817   */\n    tag_94:\n        /* \"#utility.yul\":9789:9792   */\n      0x00\n        /* \"#utility.yul\":9744:9817   */\n      swap1\n      jump\t// out\n        /* \"#utility.yul\":9823:10012   */\n    tag_95:\n        /* \"#utility.yul\":9900:9932   */\n      tag_216\n      tag_94\n      jump\t// in\n    tag_216:\n        /* \"#utility.yul\":9941:10006   */\n      tag_217\n        /* \"#utility.yul\":9999:10005   */\n      dup2\n        /* \"#utility.yul\":9991:9997   */\n      dup5\n        /* \"#utility.yul\":9985:9989   */\n      dup5\n        /* \"#utility.yul\":9941:10006   */\n      tag_93\n      jump\t// in\n    tag_217:\n        /* \"#utility.yul\":9876:10012   */\n      pop\n        /* \"#utility.yul\":9823:10012   */\n      pop\n      pop\n      jump\t// out\n        /* \"#utility.yul\":10018:10204   */\n    tag_96:\n        /* \"#utility.yul\":10078:10198   */\n    tag_219:\n        /* \"#utility.yul\":10095:10098   */\n      dup2\n        /* \"#utility.yul\":10088:10093   */\n      dup2\n        /* \"#utility.yul\":10085:10099   */\n      lt\n        /* \"#utility.yul\":10078:10198   */\n      iszero\n      tag_221\n      jumpi\n        /* \"#utility.yul\":10149:10188   */\n      tag_222\n        /* \"#utility.yul\":10186:10187   */\n      0x00\n        /* \"#utility.yul\":10179:10184   */\n      dup3\n        /* \"#utility.yul\":10149:10188   */\n      tag_95\n      jump\t// in\n    tag_222:\n        /* \"#utility.yul\":10122:10123   */\n      0x01\n        /* \"#utility.yul\":10115:10120   */\n      dup2\n        /* \"#utility.yul\":10111:10124   */\n      add\n        /* \"#utility.yul\":10102:10124   */\n      swap1\n      pop\n        /* \"#utility.yul\":10078:10198   */\n      jump(tag_219)\n    tag_221:\n        /* \"#utility.yul\":10018:10204   */\n      pop\n      pop\n      jump\t// out\n        /* \"#utility.yul\":10210:10753   */\n    tag_97:\n        /* \"#utility.yul\":10311:10313   */\n      0x1f\n        /* \"#utility.yul\":10306:10309   */\n      dup3\n        /* \"#utility.yul\":10303:10314   */\n      gt\n        /* \"#utility.yul\":10300:10746   */\n      iszero\n      tag_224\n      jumpi\n        /* \"#utility.yul\":10345:10383   */\n      tag_225\n        /* \"#utility.yul\":10377:10382   */\n      dup2\n        /* \"#utility.yul\":10345:10383   */\n      tag_86\n      jump\t// in\n    tag_225:\n        /* \"#utility.yul\":10429:10458   */\n      tag_226\n        /* \"#utility.yul\":10447:10457   */\n      dup5\n        /* \"#utility.yul\":10429:10458   */\n      tag_87\n      jump\t// in\n    tag_226:\n        /* \"#utility.yul\":10419:10427   */\n      dup2\n        /* \"#utility.yul\":10415:10459   */\n      add\n        /* \"#utility.yul\":10612:10614   */\n      0x20\n        /* \"#utility.yul\":10600:10610   */\n      dup6\n        /* \"#utility.yul\":10597:10615   */\n      lt\n        /* \"#utility.yul\":10594:10643   */\n      iszero\n      tag_227\n      jumpi\n        /* \"#utility.yul\":10633:10641   */\n      dup2\n        /* \"#utility.yul\":10618:10641   */\n      swap1\n      pop\n        /* \"#utility.yul\":10594:10643   */\n    tag_227:\n        /* \"#utility.yul\":10656:10736   */\n      tag_228\n        /* \"#utility.yul\":10712:10734   */\n      tag_229\n        /* \"#utility.yul\":10730:10733   */\n      dup6\n        /* \"#utility.yul\":10712:10734   */\n      tag_87\n      jump\t// in\n    tag_229:\n        /* \"#utility.yul\":10702:10710   */\n      dup4\n        /* \"#utility.yul\":10698:10735   */\n      add\n        /* \"#utility.yul\":10685:10696   */\n      dup3\n        /* \"#utility.yul\":10656:10736   */\n      tag_96\n      jump\t// in\n    tag_228:\n        /* \"#utility.yul\":10315:10746   */\n      pop\n      pop\n        /* \"#utility.yul\":10300:10746   */\n    tag_224:\n        /* \"#utility.yul\":10210:10753   */\n      pop\n      pop\n      pop\n      jump\t// out\n        /* \"#utility.yul\":10759:10876   */\n    tag_98:\n        /* \"#utility.yul\":10813:10821   */\n      0x00\n        /* \"#utility.yul\":10863:10868   */\n      dup3\n        /* \"#utility.yul\":10857:10861   */\n      dup3\n        /* \"#utility.yul\":10853:10869   */\n      shr\n        /* \"#utility.yul\":10832:10869   */\n      swap1\n      pop\n        /* \"#utility.yul\":10759:10876   */\n      swap3\n      swap2\n      pop\n      pop\n      jump\t// out\n        /* \"#utility.yul\":10882:11051   */\n    tag_99:\n        /* \"#utility.yul\":10926:10932   */\n      0x00\n        /* \"#utility.yul\":10959:11010   */\n      tag_232\n        /* \"#utility.yul\":11007:11008   */\n      0x00\n        /* \"#utility.yul\":11003:11009   */\n      not\n        /* \"#utility.yul\":10995:11000   */\n      dup5\n        /* \"#utility.yul\":10992:10993   */\n      0x08\n        /* \"#utility.yul\":10988:11001   */\n      mul\n        /* \"#utility.yul\":10959:11010   */\n      tag_98\n      jump\t// in\n    tag_232:\n        /* \"#utility.yul\":10955:11011   */\n      not\n        /* \"#utility.yul\":11040:11044   */\n      dup1\n        /* \"#utility.yul\":11034:11038   */\n      dup4\n        /* \"#utility.yul\":11030:11045   */\n      and\n        /* \"#utility.yul\":11020:11045   */\n      swap2\n      pop\n        /* \"#utility.yul\":10933:11051   */\n      pop\n        /* \"#utility.yul\":10882:11051   */\n      swap3\n      swap2\n      pop\n      pop\n      jump\t// out\n        /* \"#utility.yul\":11056:11351   */\n    tag_100:\n        /* \"#utility.yul\":11132:11136   */\n      0x00\n        /* \"#utility.yul\":11278:11307   */\n      tag_234\n        /* \"#utility.yul\":11303:11306   */\n      dup4\n        /* \"#utility.yul\":11297:11301   */\n      dup4\n        /* \"#utility.yul\":11278:11307   */\n      tag_99\n      jump\t// in\n    tag_234:\n        /* \"#utility.yul\":11270:11307   */\n      swap2\n      pop\n        /* \"#utility.yul\":11340:11343   */\n      dup3\n        /* \"#utility.yul\":11337:11338   */\n      0x02\n        /* \"#utility.yul\":11333:11344   */\n      mul\n        /* \"#utility.yul\":11327:11331   */\n      dup3\n        /* \"#utility.yul\":11324:11345   */\n      or\n        /* \"#utility.yul\":11316:11345   */\n      swap1\n      pop\n        /* \"#utility.yul\":11056:11351   */\n      swap3\n      swap2\n      pop\n      pop\n      jump\t// out\n        /* \"#utility.yul\":11356:12751   */\n    tag_34:\n        /* \"#utility.yul\":11473:11510   */\n      tag_236\n        /* \"#utility.yul\":11506:11509   */\n      dup3\n        /* \"#utility.yul\":11473:11510   */\n      tag_78\n      jump\t// in\n    tag_236:\n        /* \"#utility.yul\":11575:11593   */\n      0xffffffffffffffff\n        /* \"#utility.yul\":11567:11573   */\n      dup2\n        /* \"#utility.yul\":11564:11594   */\n      gt\n        /* \"#utility.yul\":11561:11617   */\n      iszero\n      tag_237\n      jumpi\n        /* \"#utility.yul\":11597:11615   */\n      tag_238\n      tag_63\n      jump\t// in\n    tag_238:\n        /* \"#utility.yul\":11561:11617   */\n    tag_237:\n        /* \"#utility.yul\":11641:11679   */\n      tag_239\n        /* \"#utility.yul\":11673:11677   */\n      dup3\n        /* \"#utility.yul\":11667:11678   */\n      sload\n        /* \"#utility.yul\":11641:11679   */\n      tag_40\n      jump\t// in\n    tag_239:\n        /* \"#utility.yul\":11726:11793   */\n      tag_240\n        /* \"#utility.yul\":11786:11792   */\n      dup3\n        /* \"#utility.yul\":11778:11784   */\n      dup3\n        /* \"#utility.yul\":11772:11776   */\n      dup6\n        /* \"#utility.yul\":11726:11793   */\n      tag_97\n      jump\t// in\n    tag_240:\n        /* \"#utility.yul\":11820:11821   */\n      0x00\n        /* \"#utility.yul\":11844:11848   */\n      0x20\n        /* \"#utility.yul\":11831:11848   */\n      swap1\n      pop\n        /* \"#utility.yul\":11876:11878   */\n      0x1f\n        /* \"#utility.yul\":11868:11874   */\n      dup4\n        /* \"#utility.yul\":11865:11879   */\n      gt\n        /* \"#utility.yul\":11893:11894   */\n      0x01\n        /* \"#utility.yul\":11888:12506   */\n      dup2\n      eq\n      tag_242\n      jumpi\n        /* \"#utility.yul\":12550:12551   */\n      0x00\n        /* \"#utility.yul\":12567:12573   */\n      dup5\n        /* \"#utility.yul\":12564:12641   */\n      iszero\n      tag_243\n      jumpi\n        /* \"#utility.yul\":12616:12625   */\n      dup3\n        /* \"#utility.yul\":12611:12614   */\n      dup8\n        /* \"#utility.yul\":12607:12626   */\n      add\n        /* \"#utility.yul\":12601:12627   */\n      mload\n        /* \"#utility.yul\":12592:12627   */\n      swap1\n      pop\n        /* \"#utility.yul\":12564:12641   */\n    tag_243:\n        /* \"#utility.yul\":12667:12734   */\n      tag_244\n        /* \"#utility.yul\":12727:12733   */\n      dup6\n        /* \"#utility.yul\":12720:12725   */\n      dup3\n        /* \"#utility.yul\":12667:12734   */\n      tag_100\n      jump\t// in\n    tag_244:\n        /* \"#utility.yul\":12661:12665   */\n      dup7\n        /* \"#utility.yul\":12654:12735   */\n      sstore\n        /* \"#utility.yul\":12523:12745   */\n      pop\n        /* \"#utility.yul\":11858:12745   */\n      jump(tag_241)\n        /* \"#utility.yul\":11888:12506   */\n    tag_242:\n        /* \"#utility.yul\":11940:11944   */\n      0x1f\n        /* \"#utility.yul\":11936:11945   */\n      not\n        /* \"#utility.yul\":11928:11934   */\n      dup5\n        /* \"#utility.yul\":11924:11946   */\n      and\n        /* \"#utility.yul\":11974:12011   */\n      tag_245\n        /* \"#utility.yul\":12006:12010   */\n      dup7\n        /* \"#utility.yul\":11974:12011   */\n      tag_86\n      jump\t// in\n    tag_245:\n        /* \"#utility.yul\":12033:12034   */\n      0x00\n        /* \"#utility.yul\":12047:12255   */\n    tag_246:\n        /* \"#utility.yul\":12061:12068   */\n      dup3\n        /* \"#utility.yul\":12058:12059   */\n      dup2\n        /* \"#utility.yul\":12055:12069   */\n      lt\n        /* \"#utility.yul\":12047:12255   */\n      iszero\n      tag_248\n      jumpi\n        /* \"#utility.yul\":12140:12149   */\n      dup5\n        /* \"#utility.yul\":12135:12138   */\n      dup10\n        /* \"#utility.yul\":12131:12150   */\n      add\n        /* \"#utility.yul\":12125:12151   */\n      mload\n        /* \"#utility.yul\":12117:12123   */\n      dup3\n        /* \"#utility.yul\":12110:12152   */\n      sstore\n        /* \"#utility.yul\":12191:12192   */\n      0x01\n        /* \"#utility.yul\":12183:12189   */\n      dup3\n        /* \"#utility.yul\":12179:12193   */\n      add\n        /* \"#utility.yul\":12169:12193   */\n      swap2\n      pop\n        /* \"#utility.yul\":12238:12240   */\n      0x20\n        /* \"#utility.yul\":12227:12236   */\n      dup6\n        /* \"#utility.yul\":12223:12241   */\n      add\n        /* \"#utility.yul\":12210:12241   */\n      swap5\n      pop\n        /* \"#utility.yul\":12084:12088   */\n      0x20\n        /* \"#utility.yul\":12081:12082   */\n      dup2\n        /* \"#utility.yul\":12077:12089   */\n      add\n        /* \"#utility.yul\":12072:12089   */\n      swap1\n      pop\n        /* \"#utility.yul\":12047:12255   */\n      jump(tag_246)\n    tag_248:\n        /* \"#utility.yul\":12283:12289   */\n      dup7\n        /* \"#utility.yul\":12274:12281   */\n      dup4\n        /* \"#utility.yul\":12271:12290   */\n      lt\n        /* \"#utility.yul\":12268:12447   */\n      iszero\n      tag_249\n      jumpi\n        /* \"#utility.yul\":12341:12350   */\n      dup5\n        /* \"#utility.yul\":12336:12339   */\n      dup10\n        /* \"#utility.yul\":12332:12351   */\n      add\n        /* \"#utility.yul\":12326:12352   */\n      mload\n        /* \"#utility.yul\":12384:12432   */\n      tag_250\n        /* \"#utility.yul\":12426:12430   */\n      0x1f\n        /* \"#utility.yul\":12418:12424   */\n      dup10\n        /* \"#utility.yul\":12414:12431   */\n      and\n        /* \"#utility.yul\":12403:12412   */\n      dup3\n        /* \"#utility.yul\":12384:12432   */\n      tag_99\n      jump\t// in\n    tag_250:\n        /* \"#utility.yul\":12376:12382   */\n      dup4\n        /* \"#utility.yul\":12369:12433   */\n      sstore\n        /* \"#utility.yul\":12291:12447   */\n      pop\n        /* \"#utility.yul\":12268:12447   */\n    tag_249:\n        /* \"#utility.yul\":12493:12494   */\n      0x01\n        /* \"#utility.yul\":12489:12490   */\n      0x02\n        /* \"#utility.yul\":12481:12487   */\n      dup9\n        /* \"#utility.yul\":12477:12491   */\n      mul\n        /* \"#utility.yul\":12473:12495   */\n      add\n        /* \"#utility.yul\":12467:12471   */\n      dup9\n        /* \"#utility.yul\":12460:12496   */\n      sstore\n        /* \"#utility.yul\":11895:12506   */\n      pop\n      pop\n      pop\n        /* \"#utility.yul\":11858:12745   */\n    tag_241:\n      pop\n        /* \"#utility.yul\":11448:12751   */\n      pop\n      pop\n      pop\n        /* \"#utility.yul\":11356:12751   */\n      pop\n      pop\n      jump\t// out\n        /* \"#utility.yul\":12757:12937   */\n    tag_48:\n        /* \"#utility.yul\":12805:12882   */\n      0x4e487b7100000000000000000000000000000000000000000000000000000000\n        /* \"#utility.yul\":12802:12803   */\n      0x00\n        /* \"#utility.yul\":12795:12883   */\n      mstore\n        /* \"#utility.yul\":12902:12906   */\n      0x32\n        /* \"#utility.yul\":12899:12900   */\n      0x04\n        /* \"#utility.yul\":12892:12907   */\n      mstore\n        /* \"#utility.yul\":12926:12930   */\n      0x24\n        /* \"#utility.yul\":12923:12924   */\n      0x00\n        /* \"#utility.yul\":12916:12931   */\n      revert\n        /* \"#utility.yul\":12943:13116   */\n    tag_101:\n        /* \"#utility.yul\":13083:13108   */\n      0x54686973204e465420646f6573206e6f74206578697374000000000000000000\n        /* \"#utility.yul\":13079:13080   */\n      0x00\n        /* \"#utility.yul\":13071:13077   */\n      dup3\n        /* \"#utility.yul\":13067:13081   */\n      add\n        /* \"#utility.yul\":13060:13109   */\n      mstore\n        /* \"#utility.yul\":12943:13116   */\n      pop\n      jump\t// out\n        /* \"#utility.yul\":13122:13488   */\n    tag_102:\n        /* \"#utility.yul\":13264:13267   */\n      0x00\n        /* \"#utility.yul\":13285:13352   */\n      tag_254\n        /* \"#utility.yul\":13349:13351   */\n      0x17\n        /* \"#utility.yul\":13344:13347   */\n      dup4\n        /* \"#utility.yul\":13285:13352   */\n      tag_79\n      jump\t// in\n    tag_254:\n        /* \"#utility.yul\":13278:13352   */\n      swap2\n      pop\n        /* \"#utility.yul\":13361:13454   */\n      tag_255\n        /* \"#utility.yul\":13450:13453   */\n      dup3\n        /* \"#utility.yul\":13361:13454   */\n      tag_101\n      jump\t// in\n    tag_255:\n        /* \"#utility.yul\":13479:13481   */\n      0x20\n        /* \"#utility.yul\":13474:13477   */\n      dup3\n        /* \"#utility.yul\":13470:13482   */\n      add\n        /* \"#utility.yul\":13463:13482   */\n      swap1\n      pop\n        /* \"#utility.yul\":13122:13488   */\n      swap2\n      swap1\n      pop\n      jump\t// out\n        /* \"#utility.yul\":13494:13913   */\n    tag_52:\n        /* \"#utility.yul\":13660:13664   */\n      0x00\n        /* \"#utility.yul\":13698:13700   */\n      0x20\n        /* \"#utility.yul\":13687:13696   */\n      dup3\n        /* \"#utility.yul\":13683:13701   */\n      add\n        /* \"#utility.yul\":13675:13701   */\n      swap1\n      pop\n        /* \"#utility.yul\":13747:13756   */\n      dup2\n        /* \"#utility.yul\":13741:13745   */\n      dup2\n        /* \"#utility.yul\":13737:13757   */\n      sub\n        /* \"#utility.yul\":13733:13734   */\n      0x00\n        /* \"#utility.yul\":13722:13731   */\n      dup4\n        /* \"#utility.yul\":13718:13735   */\n      add\n        /* \"#utility.yul\":13711:13758   */\n      mstore\n        /* \"#utility.yul\":13775:13906   */\n      tag_257\n        /* \"#utility.yul\":13901:13905   */\n      dup2\n        /* \"#utility.yul\":13775:13906   */\n      tag_102\n      jump\t// in\n    tag_257:\n        /* \"#utility.yul\":13767:13906   */\n      swap1\n      pop\n        /* \"#utility.yul\":13494:13913   */\n      swap2\n      swap1\n      pop\n      jump\t// out\n        /* \"#utility.yul\":13919:14090   */\n    tag_103:\n        /* \"#utility.yul\":14059:14082   */\n      0x4e6f7420656e6f7567682066756e64732073656e740000000000000000000000\n        /* \"#utility.yul\":14055:14056   */\n      0x00\n        /* \"#utility.yul\":14047:14053   */\n      dup3\n        /* \"#utility.yul\":14043:14057   */\n      add\n        /* \"#utility.yul\":14036:14083   */\n      mstore\n        /* \"#utility.yul\":13919:14090   */\n      pop\n      jump\t// out\n        /* \"#utility.yul\":14096:14462   */\n    tag_104:\n        /* \"#utility.yul\":14238:14241   */\n      0x00\n        /* \"#utility.yul\":14259:14326   */\n      tag_260\n        /* \"#utility.yul\":14323:14325   */\n      0x15\n        /* \"#utility.yul\":14318:14321   */\n      dup4\n        /* \"#utility.yul\":14259:14326   */\n      tag_79\n      jump\t// in\n    tag_260:\n        /* \"#utility.yul\":14252:14326   */\n      swap2\n      pop\n        /* \"#utility.yul\":14335:14428   */\n      tag_261\n        /* \"#utility.yul\":14424:14427   */\n      dup3\n        /* \"#utility.yul\":14335:14428   */\n      tag_103\n      jump\t// in\n    tag_261:\n        /* \"#utility.yul\":14453:14455   */\n      0x20\n        /* \"#utility.yul\":14448:14451   */\n      dup3\n        /* \"#utility.yul\":14444:14456   */\n      add\n        /* \"#utility.yul\":14437:14456   */\n      swap1\n      pop\n        /* \"#utility.yul\":14096:14462   */\n      swap2\n      swap1\n      pop\n      jump\t// out\n        /* \"#utility.yul\":14468:14887   */\n    tag_55:\n        /* \"#utility.yul\":14634:14638   */\n      0x00\n        /* \"#utility.yul\":14672:14674   */\n      0x20\n        /* \"#utility.yul\":14661:14670   */\n      dup3\n        /* \"#utility.yul\":14657:14675   */\n      add\n        /* \"#utility.yul\":14649:14675   */\n      swap1\n      pop\n        /* \"#utility.yul\":14721:14730   */\n      dup2\n        /* \"#utility.yul\":14715:14719   */\n      dup2\n        /* \"#utility.yul\":14711:14731   */\n      sub\n        /* \"#utility.yul\":14707:14708   */\n      0x00\n        /* \"#utility.yul\":14696:14705   */\n      dup4\n        /* \"#utility.yul\":14692:14709   */\n      add\n        /* \"#utility.yul\":14685:14732   */\n      mstore\n        /* \"#utility.yul\":14749:14880   */\n      tag_263\n        /* \"#utility.yul\":14875:14879   */\n      dup2\n        /* \"#utility.yul\":14749:14880   */\n      tag_104\n      jump\t// in\n    tag_263:\n        /* \"#utility.yul\":14741:14880   */\n      swap1\n      pop\n        /* \"#utility.yul\":14468:14887   */\n      swap2\n      swap1\n      pop\n      jump\t// out\n\n    auxdata: 0xa2646970667358221220b3b9abdd7bda73a0f01193e64423d08a7ffa73bda891773f958d55bd18dcca2164736f6c63430008160033\n}\n",
				"bytecode": {
					"linkReferences": {},
					"object": "608060405234801561000f575f80fd5b503360025f6101000a81548173ffffffffffffffffffffffffffffffffffffffff021916908373ffffffffffffffffffffffffffffffffffffffff160217905550610cc28061005d5f395ff3fe60806040526004361061003e575f3560e01c8063056b01ce1461004257806371b79d251461006a578063a3c0b95b146100a6578063d599c4dd146100e5575b5f80fd5b34801561004d575f80fd5b5061006860048036038101906100639190610646565b610101565b005b348015610075575f80fd5b50610090600480360381019061008b91906106fa565b610266565b60405161009d9190610747565b60405180910390f35b3480156100b1575f80fd5b506100cc60048036038101906100c79190610760565b610291565b6040516100dc9493929190610814565b60405180910390f35b6100ff60048036038101906100fa9190610760565b610370565b005b60025f9054906101000a900473ffffffffffffffffffffffffffffffffffffffff1673ffffffffffffffffffffffffffffffffffffffff163373ffffffffffffffffffffffffffffffffffffffff1614610190576040517f08c379a0000000000000000000000000000000000000000000000000000000008152600401610187906108a8565b60405180910390fd5b5f60405180608001604052808481526020015f73ffffffffffffffffffffffffffffffffffffffff1681526020015f80549050815260200183815250908060018154018082558091505060019003905f5260205f2090600402015f909190919091505f820151815f0190816102059190610ac0565b506020820151816001015f6101000a81548173ffffffffffffffffffffffffffffffffffffffff021916908373ffffffffffffffffffffffffffffffffffffffff160217905550604082015181600201556060820151816003015550505050565b6001602052815f5260405f20818154811061027f575f80fd5b905f5260205f20015f91509150505481565b5f818154811061029f575f80fd5b905f5260205f2090600402015f91509050805f0180546102be906108f3565b80601f01602080910402602001604051908101604052809291908181526020018280546102ea906108f3565b80156103355780601f1061030c57610100808354040283529160200191610335565b820191905f5260205f20905b81548152906001019060200180831161031857829003601f168201915b505050505090806001015f9054906101000a900473ffffffffffffffffffffffffffffffffffffffff16908060020154908060030154905084565b5f80828154811061038457610383610b8f565b5b905f5260205f20906004020190505f8160030154116103d8576040517f08c379a00000000000000000000000000000000000000000000000000000000081526004016103cf90610c06565b60405180910390fd5b348160030154111561041f576040517f08c379a000000000000000000000000000000000000000000000000000000000815260040161041690610c6e565b60405180910390fd5b33816001015f6101000a81548173ffffffffffffffffffffffffffffffffffffffff021916908373ffffffffffffffffffffffffffffffffffffffff16021790555060015f3373ffffffffffffffffffffffffffffffffffffffff1673ffffffffffffffffffffffffffffffffffffffff1681526020019081526020015f2082908060018154018082558091505060019003905f5260205f20015f90919091909150555050565b5f604051905090565b5f80fd5b5f80fd5b5f80fd5b5f80fd5b5f601f19601f8301169050919050565b7f4e487b71000000000000000000000000000000000000000000000000000000005f52604160045260245ffd5b610525826104df565b810181811067ffffffffffffffff82111715610544576105436104ef565b5b80604052505050565b5f6105566104c6565b9050610562828261051c565b919050565b5f67ffffffffffffffff821115610581576105806104ef565b5b61058a826104df565b9050602081019050919050565b828183375f83830152505050565b5f6105b76105b284610567565b61054d565b9050828152602081018484840111156105d3576105d26104db565b5b6105de848285610597565b509392505050565b5f82601f8301126105fa576105f96104d7565b5b813561060a8482602086016105a5565b91505092915050565b5f819050919050565b61062581610613565b811461062f575f80fd5b50565b5f813590506106408161061c565b92915050565b5f806040838503121561065c5761065b6104cf565b5b5f83013567ffffffffffffffff811115610679576106786104d3565b5b610685858286016105e6565b925050602061069685828601610632565b9150509250929050565b5f73ffffffffffffffffffffffffffffffffffffffff82169050919050565b5f6106c9826106a0565b9050919050565b6106d9816106bf565b81146106e3575f80fd5b50565b5f813590506106f4816106d0565b92915050565b5f80604083850312156107105761070f6104cf565b5b5f61071d858286016106e6565b925050602061072e85828601610632565b9150509250929050565b61074181610613565b82525050565b5f60208201905061075a5f830184610738565b92915050565b5f60208284031215610775576107746104cf565b5b5f61078284828501610632565b91505092915050565b5f81519050919050565b5f82825260208201905092915050565b5f5b838110156107c25780820151818401526020810190506107a7565b5f8484015250505050565b5f6107d78261078b565b6107e18185610795565b93506107f18185602086016107a5565b6107fa816104df565b840191505092915050565b61080e816106bf565b82525050565b5f6080820190508181035f83015261082c81876107cd565b905061083b6020830186610805565b6108486040830185610738565b6108556060830184610738565b95945050505050565b7f4f6e6c792061646d696e2063616e206d696e74000000000000000000000000005f82015250565b5f610892601383610795565b915061089d8261085e565b602082019050919050565b5f6020820190508181035f8301526108bf81610886565b9050919050565b7f4e487b71000000000000000000000000000000000000000000000000000000005f52602260045260245ffd5b5f600282049050600182168061090a57607f821691505b60208210810361091d5761091c6108c6565b5b50919050565b5f819050815f5260205f209050919050565b5f6020601f8301049050919050565b5f82821b905092915050565b5f6008830261097f7fffffffffffffffffffffffffffffffffffffffffffffffffffffffffffffffff82610944565b6109898683610944565b95508019841693508086168417925050509392505050565b5f819050919050565b5f6109c46109bf6109ba84610613565b6109a1565b610613565b9050919050565b5f819050919050565b6109dd836109aa565b6109f16109e9826109cb565b848454610950565b825550505050565b5f90565b610a056109f9565b610a108184846109d4565b505050565b5b81811015610a3357610a285f826109fd565b600181019050610a16565b5050565b601f821115610a7857610a4981610923565b610a5284610935565b81016020851015610a61578190505b610a75610a6d85610935565b830182610a15565b50505b505050565b5f82821c905092915050565b5f610a985f1984600802610a7d565b1980831691505092915050565b5f610ab08383610a89565b9150826002028217905092915050565b610ac98261078b565b67ffffffffffffffff811115610ae257610ae16104ef565b5b610aec82546108f3565b610af7828285610a37565b5f60209050601f831160018114610b28575f8415610b16578287015190505b610b208582610aa5565b865550610b87565b601f198416610b3686610923565b5f5b82811015610b5d57848901518255600182019150602085019450602081019050610b38565b86831015610b7a5784890151610b76601f891682610a89565b8355505b6001600288020188555050505b505050505050565b7f4e487b71000000000000000000000000000000000000000000000000000000005f52603260045260245ffd5b7f54686973204e465420646f6573206e6f742065786973740000000000000000005f82015250565b5f610bf0601783610795565b9150610bfb82610bbc565b602082019050919050565b5f6020820190508181035f830152610c1d81610be4565b9050919050565b7f4e6f7420656e6f7567682066756e64732073656e7400000000000000000000005f82015250565b5f610c58601583610795565b9150610c6382610c24565b602082019050919050565b5f6020820190508181035f830152610c8581610c4c565b905091905056fea2646970667358221220b3b9abdd7bda73a0f01193e64423d08a7ffa73bda891773f958d55bd18dcca2164736f6c63430008160033",
					"opcodes": "PUSH1 0x80 PUSH1 0x40 MSTORE CALLVALUE DUP1 ISZERO PUSH2 0xF JUMPI PUSH0 DUP1 REVERT JUMPDEST POP CALLER PUSH1 0x2 PUSH0 PUSH2 0x100 EXP DUP2 SLOAD DUP2 PUSH20 0xFFFFFFFFFFFFFFFFFFFFFFFFFFFFFFFFFFFFFFFF MUL NOT AND SWAP1 DUP4 PUSH20 0xFFFFFFFFFFFFFFFFFFFFFFFFFFFFFFFFFFFFFFFF AND MUL OR SWAP1 SSTORE POP PUSH2 0xCC2 DUP1 PUSH2 0x5D PUSH0 CODECOPY PUSH0 RETURN INVALID PUSH1 0x80 PUSH1 0x40 MSTORE PUSH1 0x4 CALLDATASIZE LT PUSH2 0x3E JUMPI PUSH0 CALLDATALOAD PUSH1 0xE0 SHR DUP1 PUSH4 0x56B01CE EQ PUSH2 0x42 JUMPI DUP1 PUSH4 0x71B79D25 EQ PUSH2 0x6A JUMPI DUP1 PUSH4 0xA3C0B95B EQ PUSH2 0xA6 JUMPI DUP1 PUSH4 0xD599C4DD EQ PUSH2 0xE5 JUMPI JUMPDEST PUSH0 DUP1 REVERT JUMPDEST CALLVALUE DUP1 ISZERO PUSH2 0x4D JUMPI PUSH0 DUP1 REVERT JUMPDEST POP PUSH2 0x68 PUSH1 0x4 DUP1 CALLDATASIZE SUB DUP2 ADD SWAP1 PUSH2 0x63 SWAP2 SWAP1 PUSH2 0x646 JUMP JUMPDEST PUSH2 0x101 JUMP JUMPDEST STOP JUMPDEST CALLVALUE DUP1 ISZERO PUSH2 0x75 JUMPI PUSH0 DUP1 REVERT JUMPDEST POP PUSH2 0x90 PUSH1 0x4 DUP1 CALLDATASIZE SUB DUP2 ADD SWAP1 PUSH2 0x8B SWAP2 SWAP1 PUSH2 0x6FA JUMP JUMPDEST PUSH2 0x266 JUMP JUMPDEST PUSH1 0x40 MLOAD PUSH2 0x9D SWAP2 SWAP1 PUSH2 0x747 JUMP JUMPDEST PUSH1 0x40 MLOAD DUP1 SWAP2 SUB SWAP1 RETURN JUMPDEST CALLVALUE DUP1 ISZERO PUSH2 0xB1 JUMPI PUSH0 DUP1 REVERT JUMPDEST POP PUSH2 0xCC PUSH1 0x4 DUP1 CALLDATASIZE SUB DUP2 ADD SWAP1 PUSH2 0xC7 SWAP2 SWAP1 PUSH2 0x760 JUMP JUMPDEST PUSH2 0x291 JUMP JUMPDEST PUSH1 0x40 MLOAD PUSH2 0xDC SWAP5 SWAP4 SWAP3 SWAP2 SWAP1 PUSH2 0x814 JUMP JUMPDEST PUSH1 0x40 MLOAD DUP1 SWAP2 SUB SWAP1 RETURN JUMPDEST PUSH2 0xFF PUSH1 0x4 DUP1 CALLDATASIZE SUB DUP2 ADD SWAP1 PUSH2 0xFA SWAP2 SWAP1 PUSH2 0x760 JUMP JUMPDEST PUSH2 0x370 JUMP JUMPDEST STOP JUMPDEST PUSH1 0x2 PUSH0 SWAP1 SLOAD SWAP1 PUSH2 0x100 EXP SWAP1 DIV PUSH20 0xFFFFFFFFFFFFFFFFFFFFFFFFFFFFFFFFFFFFFFFF AND PUSH20 0xFFFFFFFFFFFFFFFFFFFFFFFFFFFFFFFFFFFFFFFF AND CALLER PUSH20 0xFFFFFFFFFFFFFFFFFFFFFFFFFFFFFFFFFFFFFFFF AND EQ PUSH2 0x190 JUMPI PUSH1 0x40 MLOAD PUSH32 0x8C379A000000000000000000000000000000000000000000000000000000000 DUP2 MSTORE PUSH1 0x4 ADD PUSH2 0x187 SWAP1 PUSH2 0x8A8 JUMP JUMPDEST PUSH1 0x40 MLOAD DUP1 SWAP2 SUB SWAP1 REVERT JUMPDEST PUSH0 PUSH1 0x40 MLOAD DUP1 PUSH1 0x80 ADD PUSH1 0x40 MSTORE DUP1 DUP5 DUP2 MSTORE PUSH1 0x20 ADD PUSH0 PUSH20 0xFFFFFFFFFFFFFFFFFFFFFFFFFFFFFFFFFFFFFFFF AND DUP2 MSTORE PUSH1 0x20 ADD PUSH0 DUP1 SLOAD SWAP1 POP DUP2 MSTORE PUSH1 0x20 ADD DUP4 DUP2 MSTORE POP SWAP1 DUP1 PUSH1 0x1 DUP2 SLOAD ADD DUP1 DUP3 SSTORE DUP1 SWAP2 POP POP PUSH1 0x1 SWAP1 SUB SWAP1 PUSH0 MSTORE PUSH1 0x20 PUSH0 KECCAK256 SWAP1 PUSH1 0x4 MUL ADD PUSH0 SWAP1 SWAP2 SWAP1 SWAP2 SWAP1 SWAP2 POP PUSH0 DUP3 ADD MLOAD DUP2 PUSH0 ADD SWAP1 DUP2 PUSH2 0x205 SWAP2 SWAP1 PUSH2 0xAC0 JUMP JUMPDEST POP PUSH1 0x20 DUP3 ADD MLOAD DUP2 PUSH1 0x1 ADD PUSH0 PUSH2 0x100 EXP DUP2 SLOAD DUP2 PUSH20 0xFFFFFFFFFFFFFFFFFFFFFFFFFFFFFFFFFFFFFFFF MUL NOT AND SWAP1 DUP4 PUSH20 0xFFFFFFFFFFFFFFFFFFFFFFFFFFFFFFFFFFFFFFFF AND MUL OR SWAP1 SSTORE POP PUSH1 0x40 DUP3 ADD MLOAD DUP2 PUSH1 0x2 ADD SSTORE PUSH1 0x60 DUP3 ADD MLOAD DUP2 PUSH1 0x3 ADD SSTORE POP POP POP POP JUMP JUMPDEST PUSH1 0x1 PUSH1 0x20 MSTORE DUP2 PUSH0 MSTORE PUSH1 0x40 PUSH0 KECCAK256 DUP2 DUP2 SLOAD DUP2 LT PUSH2 0x27F JUMPI PUSH0 DUP1 REVERT JUMPDEST SWAP1 PUSH0 MSTORE PUSH1 0x20 PUSH0 KECCAK256 ADD PUSH0 SWAP2 POP SWAP2 POP POP SLOAD DUP2 JUMP JUMPDEST PUSH0 DUP2 DUP2 SLOAD DUP2 LT PUSH2 0x29F JUMPI PUSH0 DUP1 REVERT JUMPDEST SWAP1 PUSH0 MSTORE PUSH1 0x20 PUSH0 KECCAK256 SWAP1 PUSH1 0x4 MUL ADD PUSH0 SWAP2 POP SWAP1 POP DUP1 PUSH0 ADD DUP1 SLOAD PUSH2 0x2BE SWAP1 PUSH2 0x8F3 JUMP JUMPDEST DUP1 PUSH1 0x1F ADD PUSH1 0x20 DUP1 SWAP2 DIV MUL PUSH1 0x20 ADD PUSH1 0x40 MLOAD SWAP1 DUP2 ADD PUSH1 0x40 MSTORE DUP1 SWAP3 SWAP2 SWAP1 DUP2 DUP2 MSTORE PUSH1 0x20 ADD DUP3 DUP1 SLOAD PUSH2 0x2EA SWAP1 PUSH2 0x8F3 JUMP JUMPDEST DUP1 ISZERO PUSH2 0x335 JUMPI DUP1 PUSH1 0x1F LT PUSH2 0x30C JUMPI PUSH2 0x100 DUP1 DUP4 SLOAD DIV MUL DUP4 MSTORE SWAP2 PUSH1 0x20 ADD SWAP2 PUSH2 0x335 JUMP JUMPDEST DUP3 ADD SWAP2 SWAP1 PUSH0 MSTORE PUSH1 0x20 PUSH0 KECCAK256 SWAP1 JUMPDEST DUP2 SLOAD DUP2 MSTORE SWAP1 PUSH1 0x1 ADD SWAP1 PUSH1 0x20 ADD DUP1 DUP4 GT PUSH2 0x318 JUMPI DUP3 SWAP1 SUB PUSH1 0x1F AND DUP3 ADD SWAP2 JUMPDEST POP POP POP POP POP SWAP1 DUP1 PUSH1 0x1 ADD PUSH0 SWAP1 SLOAD SWAP1 PUSH2 0x100 EXP SWAP1 DIV PUSH20 0xFFFFFFFFFFFFFFFFFFFFFFFFFFFFFFFFFFFFFFFF AND SWAP1 DUP1 PUSH1 0x2 ADD SLOAD SWAP1 DUP1 PUSH1 0x3 ADD SLOAD SWAP1 POP DUP5 JUMP JUMPDEST PUSH0 DUP1 DUP3 DUP2 SLOAD DUP2 LT PUSH2 0x384 JUMPI PUSH2 0x383 PUSH2 0xB8F JUMP JUMPDEST JUMPDEST SWAP1 PUSH0 MSTORE PUSH1 0x20 PUSH0 KECCAK256 SWAP1 PUSH1 0x4 MUL ADD SWAP1 POP PUSH0 DUP2 PUSH1 0x3 ADD SLOAD GT PUSH2 0x3D8 JUMPI PUSH1 0x40 MLOAD PUSH32 0x8C379A000000000000000000000000000000000000000000000000000000000 DUP2 MSTORE PUSH1 0x4 ADD PUSH2 0x3CF SWAP1 PUSH2 0xC06 JUMP JUMPDEST PUSH1 0x40 MLOAD DUP1 SWAP2 SUB SWAP1 REVERT JUMPDEST CALLVALUE DUP2 PUSH1 0x3 ADD SLOAD GT ISZERO PUSH2 0x41F JUMPI PUSH1 0x40 MLOAD PUSH32 0x8C379A000000000000000000000000000000000000000000000000000000000 DUP2 MSTORE PUSH1 0x4 ADD PUSH2 0x416 SWAP1 PUSH2 0xC6E JUMP JUMPDEST PUSH1 0x40 MLOAD DUP1 SWAP2 SUB SWAP1 REVERT JUMPDEST CALLER DUP2 PUSH1 0x1 ADD PUSH0 PUSH2 0x100 EXP DUP2 SLOAD DUP2 PUSH20 0xFFFFFFFFFFFFFFFFFFFFFFFFFFFFFFFFFFFFFFFF MUL NOT AND SWAP1 DUP4 PUSH20 0xFFFFFFFFFFFFFFFFFFFFFFFFFFFFFFFFFFFFFFFF AND MUL OR SWAP1 SSTORE POP PUSH1 0x1 PUSH0 CALLER PUSH20 0xFFFFFFFFFFFFFFFFFFFFFFFFFFFFFFFFFFFFFFFF AND PUSH20 0xFFFFFFFFFFFFFFFFFFFFFFFFFFFFFFFFFFFFFFFF AND DUP2 MSTORE PUSH1 0x20 ADD SWAP1 DUP2 MSTORE PUSH1 0x20 ADD PUSH0 KECCAK256 DUP3 SWAP1 DUP1 PUSH1 0x1 DUP2 SLOAD ADD DUP1 DUP3 SSTORE DUP1 SWAP2 POP POP PUSH1 0x1 SWAP1 SUB SWAP1 PUSH0 MSTORE PUSH1 0x20 PUSH0 KECCAK256 ADD PUSH0 SWAP1 SWAP2 SWAP1 SWAP2 SWAP1 SWAP2 POP SSTORE POP POP JUMP JUMPDEST PUSH0 PUSH1 0x40 MLOAD SWAP1 POP SWAP1 JUMP JUMPDEST PUSH0 DUP1 REVERT JUMPDEST PUSH0 DUP1 REVERT JUMPDEST PUSH0 DUP1 REVERT JUMPDEST PUSH0 DUP1 REVERT JUMPDEST PUSH0 PUSH1 0x1F NOT PUSH1 0x1F DUP4 ADD AND SWAP1 POP SWAP2 SWAP1 POP JUMP JUMPDEST PUSH32 0x4E487B7100000000000000000000000000000000000000000000000000000000 PUSH0 MSTORE PUSH1 0x41 PUSH1 0x4 MSTORE PUSH1 0x24 PUSH0 REVERT JUMPDEST PUSH2 0x525 DUP3 PUSH2 0x4DF JUMP JUMPDEST DUP2 ADD DUP2 DUP2 LT PUSH8 0xFFFFFFFFFFFFFFFF DUP3 GT OR ISZERO PUSH2 0x544 JUMPI PUSH2 0x543 PUSH2 0x4EF JUMP JUMPDEST JUMPDEST DUP1 PUSH1 0x40 MSTORE POP POP POP JUMP JUMPDEST PUSH0 PUSH2 0x556 PUSH2 0x4C6 JUMP JUMPDEST SWAP1 POP PUSH2 0x562 DUP3 DUP3 PUSH2 0x51C JUMP JUMPDEST SWAP2 SWAP1 POP JUMP JUMPDEST PUSH0 PUSH8 0xFFFFFFFFFFFFFFFF DUP3 GT ISZERO PUSH2 0x581 JUMPI PUSH2 0x580 PUSH2 0x4EF JUMP JUMPDEST JUMPDEST PUSH2 0x58A DUP3 PUSH2 0x4DF JUMP JUMPDEST SWAP1 POP PUSH1 0x20 DUP2 ADD SWAP1 POP SWAP2 SWAP1 POP JUMP JUMPDEST DUP3 DUP2 DUP4 CALLDATACOPY PUSH0 DUP4 DUP4 ADD MSTORE POP POP POP JUMP JUMPDEST PUSH0 PUSH2 0x5B7 PUSH2 0x5B2 DUP5 PUSH2 0x567 JUMP JUMPDEST PUSH2 0x54D JUMP JUMPDEST SWAP1 POP DUP3 DUP2 MSTORE PUSH1 0x20 DUP2 ADD DUP5 DUP5 DUP5 ADD GT ISZERO PUSH2 0x5D3 JUMPI PUSH2 0x5D2 PUSH2 0x4DB JUMP JUMPDEST JUMPDEST PUSH2 0x5DE DUP5 DUP3 DUP6 PUSH2 0x597 JUMP JUMPDEST POP SWAP4 SWAP3 POP POP POP JUMP JUMPDEST PUSH0 DUP3 PUSH1 0x1F DUP4 ADD SLT PUSH2 0x5FA JUMPI PUSH2 0x5F9 PUSH2 0x4D7 JUMP JUMPDEST JUMPDEST DUP2 CALLDATALOAD PUSH2 0x60A DUP5 DUP3 PUSH1 0x20 DUP7 ADD PUSH2 0x5A5 JUMP JUMPDEST SWAP2 POP POP SWAP3 SWAP2 POP POP JUMP JUMPDEST PUSH0 DUP2 SWAP1 POP SWAP2 SWAP1 POP JUMP JUMPDEST PUSH2 0x625 DUP2 PUSH2 0x613 JUMP JUMPDEST DUP2 EQ PUSH2 0x62F JUMPI PUSH0 DUP1 REVERT JUMPDEST POP JUMP JUMPDEST PUSH0 DUP2 CALLDATALOAD SWAP1 POP PUSH2 0x640 DUP2 PUSH2 0x61C JUMP JUMPDEST SWAP3 SWAP2 POP POP JUMP JUMPDEST PUSH0 DUP1 PUSH1 0x40 DUP4 DUP6 SUB SLT ISZERO PUSH2 0x65C JUMPI PUSH2 0x65B PUSH2 0x4CF JUMP JUMPDEST JUMPDEST PUSH0 DUP4 ADD CALLDATALOAD PUSH8 0xFFFFFFFFFFFFFFFF DUP2 GT ISZERO PUSH2 0x679 JUMPI PUSH2 0x678 PUSH2 0x4D3 JUMP JUMPDEST JUMPDEST PUSH2 0x685 DUP6 DUP3 DUP7 ADD PUSH2 0x5E6 JUMP JUMPDEST SWAP3 POP POP PUSH1 0x20 PUSH2 0x696 DUP6 DUP3 DUP7 ADD PUSH2 0x632 JUMP JUMPDEST SWAP2 POP POP SWAP3 POP SWAP3 SWAP1 POP JUMP JUMPDEST PUSH0 PUSH20 0xFFFFFFFFFFFFFFFFFFFFFFFFFFFFFFFFFFFFFFFF DUP3 AND SWAP1 POP SWAP2 SWAP1 POP JUMP JUMPDEST PUSH0 PUSH2 0x6C9 DUP3 PUSH2 0x6A0 JUMP JUMPDEST SWAP1 POP SWAP2 SWAP1 POP JUMP JUMPDEST PUSH2 0x6D9 DUP2 PUSH2 0x6BF JUMP JUMPDEST DUP2 EQ PUSH2 0x6E3 JUMPI PUSH0 DUP1 REVERT JUMPDEST POP JUMP JUMPDEST PUSH0 DUP2 CALLDATALOAD SWAP1 POP PUSH2 0x6F4 DUP2 PUSH2 0x6D0 JUMP JUMPDEST SWAP3 SWAP2 POP POP JUMP JUMPDEST PUSH0 DUP1 PUSH1 0x40 DUP4 DUP6 SUB SLT ISZERO PUSH2 0x710 JUMPI PUSH2 0x70F PUSH2 0x4CF JUMP JUMPDEST JUMPDEST PUSH0 PUSH2 0x71D DUP6 DUP3 DUP7 ADD PUSH2 0x6E6 JUMP JUMPDEST SWAP3 POP POP PUSH1 0x20 PUSH2 0x72E DUP6 DUP3 DUP7 ADD PUSH2 0x632 JUMP JUMPDEST SWAP2 POP POP SWAP3 POP SWAP3 SWAP1 POP JUMP JUMPDEST PUSH2 0x741 DUP2 PUSH2 0x613 JUMP JUMPDEST DUP3 MSTORE POP POP JUMP JUMPDEST PUSH0 PUSH1 0x20 DUP3 ADD SWAP1 POP PUSH2 0x75A PUSH0 DUP4 ADD DUP5 PUSH2 0x738 JUMP JUMPDEST SWAP3 SWAP2 POP POP JUMP JUMPDEST PUSH0 PUSH1 0x20 DUP3 DUP5 SUB SLT ISZERO PUSH2 0x775 JUMPI PUSH2 0x774 PUSH2 0x4CF JUMP JUMPDEST JUMPDEST PUSH0 PUSH2 0x782 DUP5 DUP3 DUP6 ADD PUSH2 0x632 JUMP JUMPDEST SWAP2 POP POP SWAP3 SWAP2 POP POP JUMP JUMPDEST PUSH0 DUP2 MLOAD SWAP1 POP SWAP2 SWAP1 POP JUMP JUMPDEST PUSH0 DUP3 DUP3 MSTORE PUSH1 0x20 DUP3 ADD SWAP1 POP SWAP3 SWAP2 POP POP JUMP JUMPDEST PUSH0 JUMPDEST DUP4 DUP2 LT ISZERO PUSH2 0x7C2 JUMPI DUP1 DUP3 ADD MLOAD DUP2 DUP5 ADD MSTORE PUSH1 0x20 DUP2 ADD SWAP1 POP PUSH2 0x7A7 JUMP JUMPDEST PUSH0 DUP5 DUP5 ADD MSTORE POP POP POP POP JUMP JUMPDEST PUSH0 PUSH2 0x7D7 DUP3 PUSH2 0x78B JUMP JUMPDEST PUSH2 0x7E1 DUP2 DUP6 PUSH2 0x795 JUMP JUMPDEST SWAP4 POP PUSH2 0x7F1 DUP2 DUP6 PUSH1 0x20 DUP7 ADD PUSH2 0x7A5 JUMP JUMPDEST PUSH2 0x7FA DUP2 PUSH2 0x4DF JUMP JUMPDEST DUP5 ADD SWAP2 POP POP SWAP3 SWAP2 POP POP JUMP JUMPDEST PUSH2 0x80E DUP2 PUSH2 0x6BF JUMP JUMPDEST DUP3 MSTORE POP POP JUMP JUMPDEST PUSH0 PUSH1 0x80 DUP3 ADD SWAP1 POP DUP2 DUP2 SUB PUSH0 DUP4 ADD MSTORE PUSH2 0x82C DUP2 DUP8 PUSH2 0x7CD JUMP JUMPDEST SWAP1 POP PUSH2 0x83B PUSH1 0x20 DUP4 ADD DUP7 PUSH2 0x805 JUMP JUMPDEST PUSH2 0x848 PUSH1 0x40 DUP4 ADD DUP6 PUSH2 0x738 JUMP JUMPDEST PUSH2 0x855 PUSH1 0x60 DUP4 ADD DUP5 PUSH2 0x738 JUMP JUMPDEST SWAP6 SWAP5 POP POP POP POP POP JUMP JUMPDEST PUSH32 0x4F6E6C792061646D696E2063616E206D696E7400000000000000000000000000 PUSH0 DUP3 ADD MSTORE POP JUMP JUMPDEST PUSH0 PUSH2 0x892 PUSH1 0x13 DUP4 PUSH2 0x795 JUMP JUMPDEST SWAP2 POP PUSH2 0x89D DUP3 PUSH2 0x85E JUMP JUMPDEST PUSH1 0x20 DUP3 ADD SWAP1 POP SWAP2 SWAP1 POP JUMP JUMPDEST PUSH0 PUSH1 0x20 DUP3 ADD SWAP1 POP DUP2 DUP2 SUB PUSH0 DUP4 ADD MSTORE PUSH2 0x8BF DUP2 PUSH2 0x886 JUMP JUMPDEST SWAP1 POP SWAP2 SWAP1 POP JUMP JUMPDEST PUSH32 0x4E487B7100000000000000000000000000000000000000000000000000000000 PUSH0 MSTORE PUSH1 0x22 PUSH1 0x4 MSTORE PUSH1 0x24 PUSH0 REVERT JUMPDEST PUSH0 PUSH1 0x2 DUP3 DIV SWAP1 POP PUSH1 0x1 DUP3 AND DUP1 PUSH2 0x90A JUMPI PUSH1 0x7F DUP3 AND SWAP2 POP JUMPDEST PUSH1 0x20 DUP3 LT DUP2 SUB PUSH2 0x91D JUMPI PUSH2 0x91C PUSH2 0x8C6 JUMP JUMPDEST JUMPDEST POP SWAP2 SWAP1 POP JUMP JUMPDEST PUSH0 DUP2 SWAP1 POP DUP2 PUSH0 MSTORE PUSH1 0x20 PUSH0 KECCAK256 SWAP1 POP SWAP2 SWAP1 POP JUMP JUMPDEST PUSH0 PUSH1 0x20 PUSH1 0x1F DUP4 ADD DIV SWAP1 POP SWAP2 SWAP1 POP JUMP JUMPDEST PUSH0 DUP3 DUP3 SHL SWAP1 POP SWAP3 SWAP2 POP POP JUMP JUMPDEST PUSH0 PUSH1 0x8 DUP4 MUL PUSH2 0x97F PUSH32 0xFFFFFFFFFFFFFFFFFFFFFFFFFFFFFFFFFFFFFFFFFFFFFFFFFFFFFFFFFFFFFFFF DUP3 PUSH2 0x944 JUMP JUMPDEST PUSH2 0x989 DUP7 DUP4 PUSH2 0x944 JUMP JUMPDEST SWAP6 POP DUP1 NOT DUP5 AND SWAP4 POP DUP1 DUP7 AND DUP5 OR SWAP3 POP POP POP SWAP4 SWAP3 POP POP POP JUMP JUMPDEST PUSH0 DUP2 SWAP1 POP SWAP2 SWAP1 POP JUMP JUMPDEST PUSH0 PUSH2 0x9C4 PUSH2 0x9BF PUSH2 0x9BA DUP5 PUSH2 0x613 JUMP JUMPDEST PUSH2 0x9A1 JUMP JUMPDEST PUSH2 0x613 JUMP JUMPDEST SWAP1 POP SWAP2 SWAP1 POP JUMP JUMPDEST PUSH0 DUP2 SWAP1 POP SWAP2 SWAP1 POP JUMP JUMPDEST PUSH2 0x9DD DUP4 PUSH2 0x9AA JUMP JUMPDEST PUSH2 0x9F1 PUSH2 0x9E9 DUP3 PUSH2 0x9CB JUMP JUMPDEST DUP5 DUP5 SLOAD PUSH2 0x950 JUMP JUMPDEST DUP3 SSTORE POP POP POP POP JUMP JUMPDEST PUSH0 SWAP1 JUMP JUMPDEST PUSH2 0xA05 PUSH2 0x9F9 JUMP JUMPDEST PUSH2 0xA10 DUP2 DUP5 DUP5 PUSH2 0x9D4 JUMP JUMPDEST POP POP POP JUMP JUMPDEST JUMPDEST DUP2 DUP2 LT ISZERO PUSH2 0xA33 JUMPI PUSH2 0xA28 PUSH0 DUP3 PUSH2 0x9FD JUMP JUMPDEST PUSH1 0x1 DUP2 ADD SWAP1 POP PUSH2 0xA16 JUMP JUMPDEST POP POP JUMP JUMPDEST PUSH1 0x1F DUP3 GT ISZERO PUSH2 0xA78 JUMPI PUSH2 0xA49 DUP2 PUSH2 0x923 JUMP JUMPDEST PUSH2 0xA52 DUP5 PUSH2 0x935 JUMP JUMPDEST DUP2 ADD PUSH1 0x20 DUP6 LT ISZERO PUSH2 0xA61 JUMPI DUP2 SWAP1 POP JUMPDEST PUSH2 0xA75 PUSH2 0xA6D DUP6 PUSH2 0x935 JUMP JUMPDEST DUP4 ADD DUP3 PUSH2 0xA15 JUMP JUMPDEST POP POP JUMPDEST POP POP POP JUMP JUMPDEST PUSH0 DUP3 DUP3 SHR SWAP1 POP SWAP3 SWAP2 POP POP JUMP JUMPDEST PUSH0 PUSH2 0xA98 PUSH0 NOT DUP5 PUSH1 0x8 MUL PUSH2 0xA7D JUMP JUMPDEST NOT DUP1 DUP4 AND SWAP2 POP POP SWAP3 SWAP2 POP POP JUMP JUMPDEST PUSH0 PUSH2 0xAB0 DUP4 DUP4 PUSH2 0xA89 JUMP JUMPDEST SWAP2 POP DUP3 PUSH1 0x2 MUL DUP3 OR SWAP1 POP SWAP3 SWAP2 POP POP JUMP JUMPDEST PUSH2 0xAC9 DUP3 PUSH2 0x78B JUMP JUMPDEST PUSH8 0xFFFFFFFFFFFFFFFF DUP2 GT ISZERO PUSH2 0xAE2 JUMPI PUSH2 0xAE1 PUSH2 0x4EF JUMP JUMPDEST JUMPDEST PUSH2 0xAEC DUP3 SLOAD PUSH2 0x8F3 JUMP JUMPDEST PUSH2 0xAF7 DUP3 DUP3 DUP6 PUSH2 0xA37 JUMP JUMPDEST PUSH0 PUSH1 0x20 SWAP1 POP PUSH1 0x1F DUP4 GT PUSH1 0x1 DUP2 EQ PUSH2 0xB28 JUMPI PUSH0 DUP5 ISZERO PUSH2 0xB16 JUMPI DUP3 DUP8 ADD MLOAD SWAP1 POP JUMPDEST PUSH2 0xB20 DUP6 DUP3 PUSH2 0xAA5 JUMP JUMPDEST DUP7 SSTORE POP PUSH2 0xB87 JUMP JUMPDEST PUSH1 0x1F NOT DUP5 AND PUSH2 0xB36 DUP7 PUSH2 0x923 JUMP JUMPDEST PUSH0 JUMPDEST DUP3 DUP2 LT ISZERO PUSH2 0xB5D JUMPI DUP5 DUP10 ADD MLOAD DUP3 SSTORE PUSH1 0x1 DUP3 ADD SWAP2 POP PUSH1 0x20 DUP6 ADD SWAP5 POP PUSH1 0x20 DUP2 ADD SWAP1 POP PUSH2 0xB38 JUMP JUMPDEST DUP7 DUP4 LT ISZERO PUSH2 0xB7A JUMPI DUP5 DUP10 ADD MLOAD PUSH2 0xB76 PUSH1 0x1F DUP10 AND DUP3 PUSH2 0xA89 JUMP JUMPDEST DUP4 SSTORE POP JUMPDEST PUSH1 0x1 PUSH1 0x2 DUP9 MUL ADD DUP9 SSTORE POP POP POP JUMPDEST POP POP POP POP POP POP JUMP JUMPDEST PUSH32 0x4E487B7100000000000000000000000000000000000000000000000000000000 PUSH0 MSTORE PUSH1 0x32 PUSH1 0x4 MSTORE PUSH1 0x24 PUSH0 REVERT JUMPDEST PUSH32 0x54686973204E465420646F6573206E6F74206578697374000000000000000000 PUSH0 DUP3 ADD MSTORE POP JUMP JUMPDEST PUSH0 PUSH2 0xBF0 PUSH1 0x17 DUP4 PUSH2 0x795 JUMP JUMPDEST SWAP2 POP PUSH2 0xBFB DUP3 PUSH2 0xBBC JUMP JUMPDEST PUSH1 0x20 DUP3 ADD SWAP1 POP SWAP2 SWAP1 POP JUMP JUMPDEST PUSH0 PUSH1 0x20 DUP3 ADD SWAP1 POP DUP2 DUP2 SUB PUSH0 DUP4 ADD MSTORE PUSH2 0xC1D DUP2 PUSH2 0xBE4 JUMP JUMPDEST SWAP1 POP SWAP2 SWAP1 POP JUMP JUMPDEST PUSH32 0x4E6F7420656E6F7567682066756E64732073656E740000000000000000000000 PUSH0 DUP3 ADD MSTORE POP JUMP JUMPDEST PUSH0 PUSH2 0xC58 PUSH1 0x15 DUP4 PUSH2 0x795 JUMP JUMPDEST SWAP2 POP PUSH2 0xC63 DUP3 PUSH2 0xC24 JUMP JUMPDEST PUSH1 0x20 DUP3 ADD SWAP1 POP SWAP2 SWAP1 POP JUMP JUMPDEST PUSH0 PUSH1 0x20 DUP3 ADD SWAP1 POP DUP2 DUP2 SUB PUSH0 DUP4 ADD MSTORE PUSH2 0xC85 DUP2 PUSH2 0xC4C JUMP JUMPDEST SWAP1 POP SWAP2 SWAP1 POP JUMP INVALID LOG2 PUSH5 0x6970667358 0x22 SLT KECCAK256 0xB3 0xB9 0xAB 0xDD PUSH28 0xDA73A0F01193E64423D08A7FFA73BDA891773F958D55BD18DCCA2164 PUSH20 0x6F6C634300081600330000000000000000000000 "
				},
				"gasEstimates": {
					"creation": {
						"codeDepositCost": "653200",
						"executionCost": "24952",
						"totalCost": "678152"
					},
					"external": {
						"NFTs(uint256)": "infinite",
						"NFTsByOwner(address,uint256)": "infinite",
						"buyNFTById(uint256)": "77659",
						"mint(string,uint256)": "infinite"
					}
				},
				"methodIdentifiers": {
					"NFTs(uint256)": "a3c0b95b",
					"NFTsByOwner(address,uint256)": "71b79d25",
					"buyNFTById(uint256)": "d599c4dd",
					"mint(string,uint256)": "056b01ce"
				}
			},
			"storageLayout": {
				"storage": [
					{
						"astId": 14,
						"contract": "src/NFT.sol:NFT",
						"label": "NFTs",
						"offset": 0,
						"slot": "0",
						"type": "t_array(t_struct(NFTData)10_storage)dyn_storage"
					},
					{
						"astId": 19,
						"contract": "src/NFT.sol:NFT",
						"label": "NFTsByOwner",
						"offset": 0,
						"slot": "1",
						"type": "t_mapping(t_address,t_array(t_uint256)dyn_storage)"
					},
					{
						"astId": 21,
						"contract": "src/NFT.sol:NFT",
						"label": "admin",
						"offset": 0,
						"slot": "2",
						"type": "t_address"
					}
				],
				"types": {
					"t_address": {
						"encoding": "inplace",
						"label": "address",
						"numberOfBytes": "20"
					},
					"t_array(t_struct(NFTData)10_storage)dyn_storage": {
						"base": "t_struct(NFTData)10_storage",
						"encoding": "dynamic_array",
						"label": "struct NFT.NFTData[]",
						"numberOfBytes": "32"
					},
					"t_array(t_uint256)dyn_storage": {
						"base": "t_uint256",
						"encoding": "dynamic_array",
						"label": "uint256[]",
						"numberOfBytes": "32"
					},
					"t_mapping(t_address,t_array(t_uint256)dyn_storage)": {
						"encoding": "mapping",
						"key": "t_address",
						"label": "mapping(address => uint256[])",
						"numberOfBytes": "32",
						"value": "t_array(t_uint256)dyn_storage"
					},
					"t_string_storage": {
						"encoding": "bytes",
						"label": "string",
						"numberOfBytes": "32"
					},
					"t_struct(NFTData)10_storage": {
						"encoding": "inplace",
						"label": "struct NFT.NFTData",
						"members": [
							{
								"astId": 3,
								"contract": "src/NFT.sol:NFT",
								"label": "text",
								"offset": 0,
								"slot": "0",
								"type": "t_string_storage"
							},
							{
								"astId": 5,
								"contract": "src/NFT.sol:NFT",
								"label": "owner",
								"offset": 0,
								"slot": "1",
								"type": "t_address"
							},
							{
								"astId": 7,
								"contract": "src/NFT.sol:NFT",
								"label": "id",
								"offset": 0,
								"slot": "2",
								"type": "t_uint256"
							},
							{
								"astId": 9,
								"contract": "src/NFT.sol:NFT",
								"label": "price",
								"offset": 0,
								"slot": "3",
								"type": "t_uint256"
							}
						],
						"numberOfBytes": "128"
					},
					"t_uint256": {
						"encoding": "inplace",
						"label": "uint256",
						"numberOfBytes": "32"
					}
				}
			},
			"userdoc": {
				"kind": "user",
				"methods": {},
				"version": 1
			}
		}
	}
}